{
	"contracts/job-portal.sol": {
		"JobPortal": {
			"abi": [
				{
					"inputs": [],
					"stateMutability": "nonpayable",
					"type": "constructor"
				},
				{
					"inputs": [],
					"name": "admin",
					"outputs": [
						{
							"internalType": "address",
							"name": "",
							"type": "address"
						}
					],
					"stateMutability": "view",
					"type": "function"
				},
				{
					"inputs": [
						{
							"internalType": "uint8",
							"name": "_id",
							"type": "uint8"
						}
					],
					"name": "getApplicant",
					"outputs": [
						{
							"components": [
								{
									"internalType": "uint256",
									"name": "id",
									"type": "uint256"
								},
								{
									"internalType": "string",
									"name": "Name",
									"type": "string"
								},
								{
									"internalType": "uint8",
									"name": "age",
									"type": "uint8"
								},
								{
									"internalType": "uint256",
									"name": "rating",
									"type": "uint256"
								},
								{
									"internalType": "uint256[]",
									"name": "applied_jobs",
									"type": "uint256[]"
								},
								{
									"internalType": "uint256[]",
									"name": "applications",
									"type": "uint256[]"
								}
							],
							"internalType": "struct JobPortal.Applicant",
							"name": "",
							"type": "tuple"
						}
					],
					"stateMutability": "view",
					"type": "function"
				},
				{
					"inputs": [
						{
							"internalType": "uint8",
							"name": "_id",
							"type": "uint8"
						}
					],
					"name": "getApplication",
					"outputs": [
						{
							"components": [
								{
									"internalType": "uint256",
									"name": "id",
									"type": "uint256"
								},
								{
									"internalType": "uint256",
									"name": "applicant_id",
									"type": "uint256"
								},
								{
									"internalType": "uint256",
									"name": "job_id",
									"type": "uint256"
								},
								{
									"internalType": "string",
									"name": "application_type",
									"type": "string"
								}
							],
							"internalType": "struct JobPortal.Application",
							"name": "",
							"type": "tuple"
						}
					],
					"stateMutability": "view",
					"type": "function"
				},
				{
					"inputs": [
						{
							"internalType": "uint8",
							"name": "_id",
							"type": "uint8"
						}
					],
					"name": "getJob",
					"outputs": [
						{
							"components": [
								{
									"internalType": "string",
									"name": "Name",
									"type": "string"
								},
								{
									"internalType": "uint256",
									"name": "id",
									"type": "uint256"
								},
								{
									"internalType": "string",
									"name": "desc",
									"type": "string"
								}
							],
							"internalType": "struct JobPortal.Job",
							"name": "",
							"type": "tuple"
						}
					],
					"stateMutability": "view",
					"type": "function"
				},
				{
					"inputs": [
						{
							"internalType": "uint8",
							"name": "_id",
							"type": "uint8"
						},
						{
							"internalType": "string",
							"name": "name",
							"type": "string"
						},
						{
							"internalType": "uint8",
							"name": "age",
							"type": "uint8"
						},
						{
							"internalType": "uint256",
							"name": "rating",
							"type": "uint256"
						}
					],
					"name": "setApplicant",
					"outputs": [],
					"stateMutability": "nonpayable",
					"type": "function"
				},
				{
					"inputs": [
						{
							"internalType": "uint8",
							"name": "_id",
							"type": "uint8"
						},
						{
							"internalType": "uint8",
							"name": "applicant_id",
							"type": "uint8"
						},
						{
							"internalType": "uint8",
							"name": "job_id",
							"type": "uint8"
						},
						{
							"internalType": "string",
							"name": "application_type",
							"type": "string"
						}
					],
					"name": "setApplication",
					"outputs": [],
					"stateMutability": "nonpayable",
					"type": "function"
				},
				{
					"inputs": [
						{
							"internalType": "uint8",
							"name": "_id",
							"type": "uint8"
						},
						{
							"internalType": "string",
							"name": "name",
							"type": "string"
						},
						{
							"internalType": "string",
							"name": "desc",
							"type": "string"
						}
					],
					"name": "setJob",
					"outputs": [],
					"stateMutability": "nonpayable",
					"type": "function"
				},
				{
					"inputs": [
						{
							"internalType": "uint8",
							"name": "applicant_id",
							"type": "uint8"
						},
						{
							"internalType": "uint256",
							"name": "rating",
							"type": "uint256"
						}
					],
					"name": "setRating",
					"outputs": [],
					"stateMutability": "nonpayable",
					"type": "function"
				}
			],
			"devdoc": {
				"kind": "dev",
				"methods": {},
				"version": 1
			},
			"evm": {
				"assembly": "    /* \"contracts/job-portal.sol\":70:2287  contract JobPortal {... */\n  mstore(0x40, 0x80)\n    /* \"contracts/job-portal.sol\":122:171  constructor() {... */\n  callvalue\n  dup1\n  iszero\n  tag_1\n  jumpi\n  0x00\n  dup1\n  revert\ntag_1:\n  pop\n    /* \"contracts/job-portal.sol\":154:164  msg.sender */\n  caller\n    /* \"contracts/job-portal.sol\":146:151  admin */\n  0x00\n  dup1\n    /* \"contracts/job-portal.sol\":146:164  admin = msg.sender */\n  0x0100\n  exp\n  dup2\n  sload\n  dup2\n  0xffffffffffffffffffffffffffffffffffffffff\n  mul\n  not\n  and\n  swap1\n  dup4\n  0xffffffffffffffffffffffffffffffffffffffff\n  and\n  mul\n  or\n  swap1\n  sstore\n  pop\n    /* \"contracts/job-portal.sol\":70:2287  contract JobPortal {... */\n  dataSize(sub_0)\n  dup1\n  dataOffset(sub_0)\n  0x00\n  codecopy\n  0x00\n  return\nstop\n\nsub_0: assembly {\n        /* \"contracts/job-portal.sol\":70:2287  contract JobPortal {... */\n      mstore(0x40, 0x80)\n      callvalue\n      dup1\n      iszero\n      tag_1\n      jumpi\n      0x00\n      dup1\n      revert\n    tag_1:\n      pop\n      jumpi(tag_2, lt(calldatasize, 0x04))\n      shr(0xe0, calldataload(0x00))\n      dup1\n      0x7dc19f67\n      gt\n      tag_11\n      jumpi\n      dup1\n      0x7dc19f67\n      eq\n      tag_7\n      jumpi\n      dup1\n      0xa31569f8\n      eq\n      tag_8\n      jumpi\n      dup1\n      0xc2e0d71d\n      eq\n      tag_9\n      jumpi\n      dup1\n      0xf851a440\n      eq\n      tag_10\n      jumpi\n      jump(tag_2)\n    tag_11:\n      dup1\n      0x46682947\n      eq\n      tag_3\n      jumpi\n      dup1\n      0x4c06810a\n      eq\n      tag_4\n      jumpi\n      dup1\n      0x5b590a89\n      eq\n      tag_5\n      jumpi\n      dup1\n      0x62e2742b\n      eq\n      tag_6\n      jumpi\n    tag_2:\n      0x00\n      dup1\n      revert\n        /* \"contracts/job-portal.sol\":2166:2285  function setRating(uint8 applicant_id, uint256 rating) public {... */\n    tag_3:\n      tag_12\n      0x04\n      dup1\n      calldatasize\n      sub\n      dup2\n      add\n      swap1\n      tag_13\n      swap2\n      swap1\n      tag_14\n      jump\t// in\n    tag_13:\n      tag_15\n      jump\t// in\n    tag_12:\n      stop\n        /* \"contracts/job-portal.sol\":1192:1393  function setJob(... */\n    tag_4:\n      tag_16\n      0x04\n      dup1\n      calldatasize\n      sub\n      dup2\n      add\n      swap1\n      tag_17\n      swap2\n      swap1\n      tag_18\n      jump\t// in\n    tag_17:\n      tag_19\n      jump\t// in\n    tag_16:\n      stop\n        /* \"contracts/job-portal.sol\":924:1069  function getApplication(uint8 _id)... */\n    tag_5:\n      tag_20\n      0x04\n      dup1\n      calldatasize\n      sub\n      dup2\n      add\n      swap1\n      tag_21\n      swap2\n      swap1\n      tag_22\n      jump\t// in\n    tag_21:\n      tag_23\n      jump\t// in\n    tag_20:\n      mload(0x40)\n      tag_24\n      swap2\n      swap1\n      tag_25\n      jump\t// in\n    tag_24:\n      mload(0x40)\n      dup1\n      swap2\n      sub\n      swap1\n      return\n        /* \"contracts/job-portal.sol\":1399:1687  function setApplicant(... */\n    tag_6:\n      tag_26\n      0x04\n      dup1\n      calldatasize\n      sub\n      dup2\n      add\n      swap1\n      tag_27\n      swap2\n      swap1\n      tag_28\n      jump\t// in\n    tag_27:\n      tag_29\n      jump\t// in\n    tag_26:\n      stop\n        /* \"contracts/job-portal.sol\":825:918  function getJob(uint8 _id) public view returns (Job memory) {... */\n    tag_7:\n      tag_30\n      0x04\n      dup1\n      calldatasize\n      sub\n      dup2\n      add\n      swap1\n      tag_31\n      swap2\n      swap1\n      tag_22\n      jump\t// in\n    tag_31:\n      tag_32\n      jump\t// in\n    tag_30:\n      mload(0x40)\n      tag_33\n      swap2\n      swap1\n      tag_34\n      jump\t// in\n    tag_33:\n      mload(0x40)\n      dup1\n      swap2\n      sub\n      swap1\n      return\n        /* \"contracts/job-portal.sol\":1693:2160  function setApplication(... */\n    tag_8:\n      tag_35\n      0x04\n      dup1\n      calldatasize\n      sub\n      dup2\n      add\n      swap1\n      tag_36\n      swap2\n      swap1\n      tag_37\n      jump\t// in\n    tag_36:\n      tag_38\n      jump\t// in\n    tag_35:\n      stop\n        /* \"contracts/job-portal.sol\":1075:1186  function getApplicant(uint8 _id) public view returns (Applicant memory) {... */\n    tag_9:\n      tag_39\n      0x04\n      dup1\n      calldatasize\n      sub\n      dup2\n      add\n      swap1\n      tag_40\n      swap2\n      swap1\n      tag_22\n      jump\t// in\n    tag_40:\n      tag_41\n      jump\t// in\n    tag_39:\n      mload(0x40)\n      tag_42\n      swap2\n      swap1\n      tag_43\n      jump\t// in\n    tag_42:\n      mload(0x40)\n      dup1\n      swap2\n      sub\n      swap1\n      return\n        /* \"contracts/job-portal.sol\":95:115  address public admin */\n    tag_10:\n      tag_44\n      tag_45\n      jump\t// in\n    tag_44:\n      mload(0x40)\n      tag_46\n      swap2\n      swap1\n      tag_47\n      jump\t// in\n    tag_46:\n      mload(0x40)\n      dup1\n      swap2\n      sub\n      swap1\n      return\n        /* \"contracts/job-portal.sol\":2166:2285  function setRating(uint8 applicant_id, uint256 rating) public {... */\n    tag_15:\n        /* \"contracts/job-portal.sol\":2272:2278  rating */\n      dup1\n        /* \"contracts/job-portal.sol\":2238:2248  applicants */\n      0x02\n        /* \"contracts/job-portal.sol\":2238:2262  applicants[applicant_id] */\n      0x00\n        /* \"contracts/job-portal.sol\":2249:2261  applicant_id */\n      dup5\n        /* \"contracts/job-portal.sol\":2238:2262  applicants[applicant_id] */\n      0xff\n      and\n      0xff\n      and\n      dup2\n      mstore\n      0x20\n      add\n      swap1\n      dup2\n      mstore\n      0x20\n      add\n      0x00\n      keccak256\n        /* \"contracts/job-portal.sol\":2238:2269  applicants[applicant_id].rating */\n      0x03\n      add\n        /* \"contracts/job-portal.sol\":2238:2278  applicants[applicant_id].rating = rating */\n      dup2\n      swap1\n      sstore\n      pop\n        /* \"contracts/job-portal.sol\":2166:2285  function setRating(uint8 applicant_id, uint256 rating) public {... */\n      pop\n      pop\n      jump\t// out\n        /* \"contracts/job-portal.sol\":1192:1393  function setJob(... */\n    tag_19:\n        /* \"contracts/job-portal.sol\":1321:1324  _id */\n      dup3\n        /* \"contracts/job-portal.sol\":1306:1324  jobs[_id].id = _id */\n      0xff\n      and\n        /* \"contracts/job-portal.sol\":1306:1310  jobs */\n      0x03\n        /* \"contracts/job-portal.sol\":1306:1315  jobs[_id] */\n      0x00\n        /* \"contracts/job-portal.sol\":1311:1314  _id */\n      dup6\n        /* \"contracts/job-portal.sol\":1306:1315  jobs[_id] */\n      0xff\n      and\n      0xff\n      and\n      dup2\n      mstore\n      0x20\n      add\n      swap1\n      dup2\n      mstore\n      0x20\n      add\n      0x00\n      keccak256\n        /* \"contracts/job-portal.sol\":1306:1318  jobs[_id].id */\n      0x01\n      add\n        /* \"contracts/job-portal.sol\":1306:1324  jobs[_id].id = _id */\n      dup2\n      swap1\n      sstore\n      pop\n        /* \"contracts/job-portal.sol\":1351:1355  name */\n      dup2\n        /* \"contracts/job-portal.sol\":1334:1338  jobs */\n      0x03\n        /* \"contracts/job-portal.sol\":1334:1343  jobs[_id] */\n      0x00\n        /* \"contracts/job-portal.sol\":1339:1342  _id */\n      dup6\n        /* \"contracts/job-portal.sol\":1334:1343  jobs[_id] */\n      0xff\n      and\n      0xff\n      and\n      dup2\n      mstore\n      0x20\n      add\n      swap1\n      dup2\n      mstore\n      0x20\n      add\n      0x00\n      keccak256\n        /* \"contracts/job-portal.sol\":1334:1348  jobs[_id].Name */\n      0x00\n      add\n        /* \"contracts/job-portal.sol\":1334:1355  jobs[_id].Name = name */\n      swap1\n      dup2\n      tag_50\n      swap2\n      swap1\n      tag_51\n      jump\t// in\n    tag_50:\n      pop\n        /* \"contracts/job-portal.sol\":1382:1386  desc */\n      dup1\n        /* \"contracts/job-portal.sol\":1365:1369  jobs */\n      0x03\n        /* \"contracts/job-portal.sol\":1365:1374  jobs[_id] */\n      0x00\n        /* \"contracts/job-portal.sol\":1370:1373  _id */\n      dup6\n        /* \"contracts/job-portal.sol\":1365:1374  jobs[_id] */\n      0xff\n      and\n      0xff\n      and\n      dup2\n      mstore\n      0x20\n      add\n      swap1\n      dup2\n      mstore\n      0x20\n      add\n      0x00\n      keccak256\n        /* \"contracts/job-portal.sol\":1365:1379  jobs[_id].desc */\n      0x02\n      add\n        /* \"contracts/job-portal.sol\":1365:1386  jobs[_id].desc = desc */\n      swap1\n      dup2\n      tag_52\n      swap2\n      swap1\n      tag_51\n      jump\t// in\n    tag_52:\n      pop\n        /* \"contracts/job-portal.sol\":1192:1393  function setJob(... */\n      pop\n      pop\n      pop\n      jump\t// out\n        /* \"contracts/job-portal.sol\":924:1069  function getApplication(uint8 _id)... */\n    tag_23:\n        /* \"contracts/job-portal.sol\":1004:1022  Application memory */\n      tag_53\n      tag_54\n      jump\t// in\n    tag_53:\n        /* \"contracts/job-portal.sol\":1045:1057  applications */\n      0x01\n        /* \"contracts/job-portal.sol\":1045:1062  applications[_id] */\n      0x00\n        /* \"contracts/job-portal.sol\":1058:1061  _id */\n      dup4\n        /* \"contracts/job-portal.sol\":1045:1062  applications[_id] */\n      0xff\n      and\n      0xff\n      and\n      dup2\n      mstore\n      0x20\n      add\n      swap1\n      dup2\n      mstore\n      0x20\n      add\n      0x00\n      keccak256\n        /* \"contracts/job-portal.sol\":1038:1062  return applications[_id] */\n      mload(0x40)\n      dup1\n      0x80\n      add\n      0x40\n      mstore\n      swap1\n      dup2\n      0x00\n      dup3\n      add\n      sload\n      dup2\n      mstore\n      0x20\n      add\n      0x01\n      dup3\n      add\n      sload\n      dup2\n      mstore\n      0x20\n      add\n      0x02\n      dup3\n      add\n      sload\n      dup2\n      mstore\n      0x20\n      add\n      0x03\n      dup3\n      add\n      dup1\n      sload\n      tag_56\n      swap1\n      tag_57\n      jump\t// in\n    tag_56:\n      dup1\n      0x1f\n      add\n      0x20\n      dup1\n      swap2\n      div\n      mul\n      0x20\n      add\n      mload(0x40)\n      swap1\n      dup2\n      add\n      0x40\n      mstore\n      dup1\n      swap3\n      swap2\n      swap1\n      dup2\n      dup2\n      mstore\n      0x20\n      add\n      dup3\n      dup1\n      sload\n      tag_58\n      swap1\n      tag_57\n      jump\t// in\n    tag_58:\n      dup1\n      iszero\n      tag_59\n      jumpi\n      dup1\n      0x1f\n      lt\n      tag_60\n      jumpi\n      0x0100\n      dup1\n      dup4\n      sload\n      div\n      mul\n      dup4\n      mstore\n      swap2\n      0x20\n      add\n      swap2\n      jump(tag_59)\n    tag_60:\n      dup3\n      add\n      swap2\n      swap1\n      0x00\n      mstore\n      keccak256(0x00, 0x20)\n      swap1\n    tag_61:\n      dup2\n      sload\n      dup2\n      mstore\n      swap1\n      0x01\n      add\n      swap1\n      0x20\n      add\n      dup1\n      dup4\n      gt\n      tag_61\n      jumpi\n      dup3\n      swap1\n      sub\n      0x1f\n      and\n      dup3\n      add\n      swap2\n    tag_59:\n      pop\n      pop\n      pop\n      pop\n      pop\n      dup2\n      mstore\n      pop\n      pop\n      swap1\n      pop\n        /* \"contracts/job-portal.sol\":924:1069  function getApplication(uint8 _id)... */\n      swap2\n      swap1\n      pop\n      jump\t// out\n        /* \"contracts/job-portal.sol\":1399:1687  function setApplicant(... */\n    tag_29:\n        /* \"contracts/job-portal.sol\":230:235  admin */\n      0x00\n      dup1\n      sload\n      swap1\n      0x0100\n      exp\n      swap1\n      div\n      0xffffffffffffffffffffffffffffffffffffffff\n      and\n        /* \"contracts/job-portal.sol\":216:235  msg.sender == admin */\n      0xffffffffffffffffffffffffffffffffffffffff\n      and\n        /* \"contracts/job-portal.sol\":216:226  msg.sender */\n      caller\n        /* \"contracts/job-portal.sol\":216:235  msg.sender == admin */\n      0xffffffffffffffffffffffffffffffffffffffff\n      and\n      eq\n        /* \"contracts/job-portal.sol\":208:236  require(msg.sender == admin) */\n      tag_63\n      jumpi\n      0x00\n      dup1\n      revert\n    tag_63:\n        /* \"contracts/job-portal.sol\":1564:1567  _id */\n      dup4\n        /* \"contracts/job-portal.sol\":1543:1567  applicants[_id].id = _id */\n      0xff\n      and\n        /* \"contracts/job-portal.sol\":1543:1553  applicants */\n      0x02\n        /* \"contracts/job-portal.sol\":1543:1558  applicants[_id] */\n      0x00\n        /* \"contracts/job-portal.sol\":1554:1557  _id */\n      dup7\n        /* \"contracts/job-portal.sol\":1543:1558  applicants[_id] */\n      0xff\n      and\n      0xff\n      and\n      dup2\n      mstore\n      0x20\n      add\n      swap1\n      dup2\n      mstore\n      0x20\n      add\n      0x00\n      keccak256\n        /* \"contracts/job-portal.sol\":1543:1561  applicants[_id].id */\n      0x00\n      add\n        /* \"contracts/job-portal.sol\":1543:1567  applicants[_id].id = _id */\n      dup2\n      swap1\n      sstore\n      pop\n        /* \"contracts/job-portal.sol\":1600:1604  name */\n      dup3\n        /* \"contracts/job-portal.sol\":1577:1587  applicants */\n      0x02\n        /* \"contracts/job-portal.sol\":1577:1592  applicants[_id] */\n      0x00\n        /* \"contracts/job-portal.sol\":1588:1591  _id */\n      dup7\n        /* \"contracts/job-portal.sol\":1577:1592  applicants[_id] */\n      0xff\n      and\n      0xff\n      and\n      dup2\n      mstore\n      0x20\n      add\n      swap1\n      dup2\n      mstore\n      0x20\n      add\n      0x00\n      keccak256\n        /* \"contracts/job-portal.sol\":1577:1597  applicants[_id].Name */\n      0x01\n      add\n        /* \"contracts/job-portal.sol\":1577:1604  applicants[_id].Name = name */\n      swap1\n      dup2\n      tag_65\n      swap2\n      swap1\n      tag_51\n      jump\t// in\n    tag_65:\n      pop\n        /* \"contracts/job-portal.sol\":1636:1639  age */\n      dup2\n        /* \"contracts/job-portal.sol\":1614:1624  applicants */\n      0x02\n        /* \"contracts/job-portal.sol\":1614:1629  applicants[_id] */\n      0x00\n        /* \"contracts/job-portal.sol\":1625:1628  _id */\n      dup7\n        /* \"contracts/job-portal.sol\":1614:1629  applicants[_id] */\n      0xff\n      and\n      0xff\n      and\n      dup2\n      mstore\n      0x20\n      add\n      swap1\n      dup2\n      mstore\n      0x20\n      add\n      0x00\n      keccak256\n        /* \"contracts/job-portal.sol\":1614:1633  applicants[_id].age */\n      0x02\n      add\n      0x00\n        /* \"contracts/job-portal.sol\":1614:1639  applicants[_id].age = age */\n      0x0100\n      exp\n      dup2\n      sload\n      dup2\n      0xff\n      mul\n      not\n      and\n      swap1\n      dup4\n      0xff\n      and\n      mul\n      or\n      swap1\n      sstore\n      pop\n        /* \"contracts/job-portal.sol\":1674:1680  rating */\n      dup1\n        /* \"contracts/job-portal.sol\":1649:1659  applicants */\n      0x02\n        /* \"contracts/job-portal.sol\":1649:1664  applicants[_id] */\n      0x00\n        /* \"contracts/job-portal.sol\":1660:1663  _id */\n      dup7\n        /* \"contracts/job-portal.sol\":1649:1664  applicants[_id] */\n      0xff\n      and\n      0xff\n      and\n      dup2\n      mstore\n      0x20\n      add\n      swap1\n      dup2\n      mstore\n      0x20\n      add\n      0x00\n      keccak256\n        /* \"contracts/job-portal.sol\":1649:1671  applicants[_id].rating */\n      0x03\n      add\n        /* \"contracts/job-portal.sol\":1649:1680  applicants[_id].rating = rating */\n      dup2\n      swap1\n      sstore\n      pop\n        /* \"contracts/job-portal.sol\":1399:1687  function setApplicant(... */\n      pop\n      pop\n      pop\n      pop\n      jump\t// out\n        /* \"contracts/job-portal.sol\":825:918  function getJob(uint8 _id) public view returns (Job memory) {... */\n    tag_32:\n        /* \"contracts/job-portal.sol\":873:883  Job memory */\n      tag_66\n      tag_67\n      jump\t// in\n    tag_66:\n        /* \"contracts/job-portal.sol\":902:906  jobs */\n      0x03\n        /* \"contracts/job-portal.sol\":902:911  jobs[_id] */\n      0x00\n        /* \"contracts/job-portal.sol\":907:910  _id */\n      dup4\n        /* \"contracts/job-portal.sol\":902:911  jobs[_id] */\n      0xff\n      and\n      0xff\n      and\n      dup2\n      mstore\n      0x20\n      add\n      swap1\n      dup2\n      mstore\n      0x20\n      add\n      0x00\n      keccak256\n        /* \"contracts/job-portal.sol\":895:911  return jobs[_id] */\n      mload(0x40)\n      dup1\n      0x60\n      add\n      0x40\n      mstore\n      swap1\n      dup2\n      0x00\n      dup3\n      add\n      dup1\n      sload\n      tag_69\n      swap1\n      tag_57\n      jump\t// in\n    tag_69:\n      dup1\n      0x1f\n      add\n      0x20\n      dup1\n      swap2\n      div\n      mul\n      0x20\n      add\n      mload(0x40)\n      swap1\n      dup2\n      add\n      0x40\n      mstore\n      dup1\n      swap3\n      swap2\n      swap1\n      dup2\n      dup2\n      mstore\n      0x20\n      add\n      dup3\n      dup1\n      sload\n      tag_70\n      swap1\n      tag_57\n      jump\t// in\n    tag_70:\n      dup1\n      iszero\n      tag_71\n      jumpi\n      dup1\n      0x1f\n      lt\n      tag_72\n      jumpi\n      0x0100\n      dup1\n      dup4\n      sload\n      div\n      mul\n      dup4\n      mstore\n      swap2\n      0x20\n      add\n      swap2\n      jump(tag_71)\n    tag_72:\n      dup3\n      add\n      swap2\n      swap1\n      0x00\n      mstore\n      keccak256(0x00, 0x20)\n      swap1\n    tag_73:\n      dup2\n      sload\n      dup2\n      mstore\n      swap1\n      0x01\n      add\n      swap1\n      0x20\n      add\n      dup1\n      dup4\n      gt\n      tag_73\n      jumpi\n      dup3\n      swap1\n      sub\n      0x1f\n      and\n      dup3\n      add\n      swap2\n    tag_71:\n      pop\n      pop\n      pop\n      pop\n      pop\n      dup2\n      mstore\n      0x20\n      add\n      0x01\n      dup3\n      add\n      sload\n      dup2\n      mstore\n      0x20\n      add\n      0x02\n      dup3\n      add\n      dup1\n      sload\n      tag_74\n      swap1\n      tag_57\n      jump\t// in\n    tag_74:\n      dup1\n      0x1f\n      add\n      0x20\n      dup1\n      swap2\n      div\n      mul\n      0x20\n      add\n      mload(0x40)\n      swap1\n      dup2\n      add\n      0x40\n      mstore\n      dup1\n      swap3\n      swap2\n      swap1\n      dup2\n      dup2\n      mstore\n      0x20\n      add\n      dup3\n      dup1\n      sload\n      tag_75\n      swap1\n      tag_57\n      jump\t// in\n    tag_75:\n      dup1\n      iszero\n      tag_76\n      jumpi\n      dup1\n      0x1f\n      lt\n      tag_77\n      jumpi\n      0x0100\n      dup1\n      dup4\n      sload\n      div\n      mul\n      dup4\n      mstore\n      swap2\n      0x20\n      add\n      swap2\n      jump(tag_76)\n    tag_77:\n      dup3\n      add\n      swap2\n      swap1\n      0x00\n      mstore\n      keccak256(0x00, 0x20)\n      swap1\n    tag_78:\n      dup2\n      sload\n      dup2\n      mstore\n      swap1\n      0x01\n      add\n      swap1\n      0x20\n      add\n      dup1\n      dup4\n      gt\n      tag_78\n      jumpi\n      dup3\n      swap1\n      sub\n      0x1f\n      and\n      dup3\n      add\n      swap2\n    tag_76:\n      pop\n      pop\n      pop\n      pop\n      pop\n      dup2\n      mstore\n      pop\n      pop\n      swap1\n      pop\n        /* \"contracts/job-portal.sol\":825:918  function getJob(uint8 _id) public view returns (Job memory) {... */\n      swap2\n      swap1\n      pop\n      jump\t// out\n        /* \"contracts/job-portal.sol\":1693:2160  function setApplication(... */\n    tag_38:\n        /* \"contracts/job-portal.sol\":1872:1875  _id */\n      dup4\n        /* \"contracts/job-portal.sol\":1849:1875  applications[_id].id = _id */\n      0xff\n      and\n        /* \"contracts/job-portal.sol\":1849:1861  applications */\n      0x01\n        /* \"contracts/job-portal.sol\":1849:1866  applications[_id] */\n      0x00\n        /* \"contracts/job-portal.sol\":1862:1865  _id */\n      dup7\n        /* \"contracts/job-portal.sol\":1849:1866  applications[_id] */\n      0xff\n      and\n      0xff\n      and\n      dup2\n      mstore\n      0x20\n      add\n      swap1\n      dup2\n      mstore\n      0x20\n      add\n      0x00\n      keccak256\n        /* \"contracts/job-portal.sol\":1849:1869  applications[_id].id */\n      0x00\n      add\n        /* \"contracts/job-portal.sol\":1849:1875  applications[_id].id = _id */\n      dup2\n      swap1\n      sstore\n      pop\n        /* \"contracts/job-portal.sol\":1918:1930  applicant_id */\n      dup3\n        /* \"contracts/job-portal.sol\":1885:1930  applications[_id].applicant_id = applicant_id */\n      0xff\n      and\n        /* \"contracts/job-portal.sol\":1885:1897  applications */\n      0x01\n        /* \"contracts/job-portal.sol\":1885:1902  applications[_id] */\n      0x00\n        /* \"contracts/job-portal.sol\":1898:1901  _id */\n      dup7\n        /* \"contracts/job-portal.sol\":1885:1902  applications[_id] */\n      0xff\n      and\n      0xff\n      and\n      dup2\n      mstore\n      0x20\n      add\n      swap1\n      dup2\n      mstore\n      0x20\n      add\n      0x00\n      keccak256\n        /* \"contracts/job-portal.sol\":1885:1915  applications[_id].applicant_id */\n      0x01\n      add\n        /* \"contracts/job-portal.sol\":1885:1930  applications[_id].applicant_id = applicant_id */\n      dup2\n      swap1\n      sstore\n      pop\n        /* \"contracts/job-portal.sol\":1967:1973  job_id */\n      dup2\n        /* \"contracts/job-portal.sol\":1940:1973  applications[_id].job_id = job_id */\n      0xff\n      and\n        /* \"contracts/job-portal.sol\":1940:1952  applications */\n      0x01\n        /* \"contracts/job-portal.sol\":1940:1957  applications[_id] */\n      0x00\n        /* \"contracts/job-portal.sol\":1953:1956  _id */\n      dup7\n        /* \"contracts/job-portal.sol\":1940:1957  applications[_id] */\n      0xff\n      and\n      0xff\n      and\n      dup2\n      mstore\n      0x20\n      add\n      swap1\n      dup2\n      mstore\n      0x20\n      add\n      0x00\n      keccak256\n        /* \"contracts/job-portal.sol\":1940:1964  applications[_id].job_id */\n      0x02\n      add\n        /* \"contracts/job-portal.sol\":1940:1973  applications[_id].job_id = job_id */\n      dup2\n      swap1\n      sstore\n      pop\n        /* \"contracts/job-portal.sol\":2020:2036  application_type */\n      dup1\n        /* \"contracts/job-portal.sol\":1983:1995  applications */\n      0x01\n        /* \"contracts/job-portal.sol\":1983:2000  applications[_id] */\n      0x00\n        /* \"contracts/job-portal.sol\":1996:1999  _id */\n      dup7\n        /* \"contracts/job-portal.sol\":1983:2000  applications[_id] */\n      0xff\n      and\n      0xff\n      and\n      dup2\n      mstore\n      0x20\n      add\n      swap1\n      dup2\n      mstore\n      0x20\n      add\n      0x00\n      keccak256\n        /* \"contracts/job-portal.sol\":1983:2017  applications[_id].application_type */\n      0x03\n      add\n        /* \"contracts/job-portal.sol\":1983:2036  applications[_id].application_type = application_type */\n      swap1\n      dup2\n      tag_80\n      swap2\n      swap1\n      tag_51\n      jump\t// in\n    tag_80:\n      pop\n        /* \"contracts/job-portal.sol\":2046:2056  applicants */\n      0x02\n        /* \"contracts/job-portal.sol\":2046:2070  applicants[applicant_id] */\n      0x00\n        /* \"contracts/job-portal.sol\":2057:2069  applicant_id */\n      dup5\n        /* \"contracts/job-portal.sol\":2046:2070  applicants[applicant_id] */\n      0xff\n      and\n      0xff\n      and\n      dup2\n      mstore\n      0x20\n      add\n      swap1\n      dup2\n      mstore\n      0x20\n      add\n      0x00\n      keccak256\n        /* \"contracts/job-portal.sol\":2046:2083  applicants[applicant_id].applied_jobs */\n      0x04\n      add\n        /* \"contracts/job-portal.sol\":2089:2095  job_id */\n      dup3\n        /* \"contracts/job-portal.sol\":2046:2096  applicants[applicant_id].applied_jobs.push(job_id) */\n      swap1\n      dup1\n      0x01\n      dup2\n      sload\n      add\n      dup1\n      dup3\n      sstore\n      dup1\n      swap2\n      pop\n      pop\n      0x01\n      swap1\n      sub\n      swap1\n      0x00\n      mstore\n      keccak256(0x00, 0x20)\n      add\n      0x00\n      swap1\n      swap2\n      0xff\n      and\n      swap1\n      swap2\n      swap1\n      swap2\n      pop\n      sstore\n        /* \"contracts/job-portal.sol\":2106:2116  applicants */\n      0x02\n        /* \"contracts/job-portal.sol\":2106:2130  applicants[applicant_id] */\n      0x00\n        /* \"contracts/job-portal.sol\":2117:2129  applicant_id */\n      dup5\n        /* \"contracts/job-portal.sol\":2106:2130  applicants[applicant_id] */\n      0xff\n      and\n      0xff\n      and\n      dup2\n      mstore\n      0x20\n      add\n      swap1\n      dup2\n      mstore\n      0x20\n      add\n      0x00\n      keccak256\n        /* \"contracts/job-portal.sol\":2106:2143  applicants[applicant_id].applications */\n      0x05\n      add\n        /* \"contracts/job-portal.sol\":2149:2152  _id */\n      dup5\n        /* \"contracts/job-portal.sol\":2106:2153  applicants[applicant_id].applications.push(_id) */\n      swap1\n      dup1\n      0x01\n      dup2\n      sload\n      add\n      dup1\n      dup3\n      sstore\n      dup1\n      swap2\n      pop\n      pop\n      0x01\n      swap1\n      sub\n      swap1\n      0x00\n      mstore\n      keccak256(0x00, 0x20)\n      add\n      0x00\n      swap1\n      swap2\n      0xff\n      and\n      swap1\n      swap2\n      swap1\n      swap2\n      pop\n      sstore\n        /* \"contracts/job-portal.sol\":1693:2160  function setApplication(... */\n      pop\n      pop\n      pop\n      pop\n      jump\t// out\n        /* \"contracts/job-portal.sol\":1075:1186  function getApplicant(uint8 _id) public view returns (Applicant memory) {... */\n    tag_41:\n        /* \"contracts/job-portal.sol\":1129:1145  Applicant memory */\n      tag_83\n      tag_84\n      jump\t// in\n    tag_83:\n        /* \"contracts/job-portal.sol\":1164:1174  applicants */\n      0x02\n        /* \"contracts/job-portal.sol\":1164:1179  applicants[_id] */\n      0x00\n        /* \"contracts/job-portal.sol\":1175:1178  _id */\n      dup4\n        /* \"contracts/job-portal.sol\":1164:1179  applicants[_id] */\n      0xff\n      and\n      0xff\n      and\n      dup2\n      mstore\n      0x20\n      add\n      swap1\n      dup2\n      mstore\n      0x20\n      add\n      0x00\n      keccak256\n        /* \"contracts/job-portal.sol\":1157:1179  return applicants[_id] */\n      mload(0x40)\n      dup1\n      0xc0\n      add\n      0x40\n      mstore\n      swap1\n      dup2\n      0x00\n      dup3\n      add\n      sload\n      dup2\n      mstore\n      0x20\n      add\n      0x01\n      dup3\n      add\n      dup1\n      sload\n      tag_86\n      swap1\n      tag_57\n      jump\t// in\n    tag_86:\n      dup1\n      0x1f\n      add\n      0x20\n      dup1\n      swap2\n      div\n      mul\n      0x20\n      add\n      mload(0x40)\n      swap1\n      dup2\n      add\n      0x40\n      mstore\n      dup1\n      swap3\n      swap2\n      swap1\n      dup2\n      dup2\n      mstore\n      0x20\n      add\n      dup3\n      dup1\n      sload\n      tag_87\n      swap1\n      tag_57\n      jump\t// in\n    tag_87:\n      dup1\n      iszero\n      tag_88\n      jumpi\n      dup1\n      0x1f\n      lt\n      tag_89\n      jumpi\n      0x0100\n      dup1\n      dup4\n      sload\n      div\n      mul\n      dup4\n      mstore\n      swap2\n      0x20\n      add\n      swap2\n      jump(tag_88)\n    tag_89:\n      dup3\n      add\n      swap2\n      swap1\n      0x00\n      mstore\n      keccak256(0x00, 0x20)\n      swap1\n    tag_90:\n      dup2\n      sload\n      dup2\n      mstore\n      swap1\n      0x01\n      add\n      swap1\n      0x20\n      add\n      dup1\n      dup4\n      gt\n      tag_90\n      jumpi\n      dup3\n      swap1\n      sub\n      0x1f\n      and\n      dup3\n      add\n      swap2\n    tag_88:\n      pop\n      pop\n      pop\n      pop\n      pop\n      dup2\n      mstore\n      0x20\n      add\n      0x02\n      dup3\n      add\n      0x00\n      swap1\n      sload\n      swap1\n      0x0100\n      exp\n      swap1\n      div\n      0xff\n      and\n      0xff\n      and\n      0xff\n      and\n      dup2\n      mstore\n      0x20\n      add\n      0x03\n      dup3\n      add\n      sload\n      dup2\n      mstore\n      0x20\n      add\n      0x04\n      dup3\n      add\n      dup1\n      sload\n      dup1\n      0x20\n      mul\n      0x20\n      add\n      mload(0x40)\n      swap1\n      dup2\n      add\n      0x40\n      mstore\n      dup1\n      swap3\n      swap2\n      swap1\n      dup2\n      dup2\n      mstore\n      0x20\n      add\n      dup3\n      dup1\n      sload\n      dup1\n      iszero\n      tag_91\n      jumpi\n      0x20\n      mul\n      dup3\n      add\n      swap2\n      swap1\n      0x00\n      mstore\n      keccak256(0x00, 0x20)\n      swap1\n    tag_92:\n      dup2\n      sload\n      dup2\n      mstore\n      0x20\n      add\n      swap1\n      0x01\n      add\n      swap1\n      dup1\n      dup4\n      gt\n      tag_92\n      jumpi\n    tag_91:\n      pop\n      pop\n      pop\n      pop\n      pop\n      dup2\n      mstore\n      0x20\n      add\n      0x05\n      dup3\n      add\n      dup1\n      sload\n      dup1\n      0x20\n      mul\n      0x20\n      add\n      mload(0x40)\n      swap1\n      dup2\n      add\n      0x40\n      mstore\n      dup1\n      swap3\n      swap2\n      swap1\n      dup2\n      dup2\n      mstore\n      0x20\n      add\n      dup3\n      dup1\n      sload\n      dup1\n      iszero\n      tag_93\n      jumpi\n      0x20\n      mul\n      dup3\n      add\n      swap2\n      swap1\n      0x00\n      mstore\n      keccak256(0x00, 0x20)\n      swap1\n    tag_94:\n      dup2\n      sload\n      dup2\n      mstore\n      0x20\n      add\n      swap1\n      0x01\n      add\n      swap1\n      dup1\n      dup4\n      gt\n      tag_94\n      jumpi\n    tag_93:\n      pop\n      pop\n      pop\n      pop\n      pop\n      dup2\n      mstore\n      pop\n      pop\n      swap1\n      pop\n        /* \"contracts/job-portal.sol\":1075:1186  function getApplicant(uint8 _id) public view returns (Applicant memory) {... */\n      swap2\n      swap1\n      pop\n      jump\t// out\n        /* \"contracts/job-portal.sol\":95:115  address public admin */\n    tag_45:\n      0x00\n      dup1\n      sload\n      swap1\n      0x0100\n      exp\n      swap1\n      div\n      0xffffffffffffffffffffffffffffffffffffffff\n      and\n      dup2\n      jump\t// out\n    tag_54:\n      mload(0x40)\n      dup1\n      0x80\n      add\n      0x40\n      mstore\n      dup1\n      0x00\n      dup2\n      mstore\n      0x20\n      add\n      0x00\n      dup2\n      mstore\n      0x20\n      add\n      0x00\n      dup2\n      mstore\n      0x20\n      add\n      0x60\n      dup2\n      mstore\n      pop\n      swap1\n      jump\t// out\n    tag_67:\n      mload(0x40)\n      dup1\n      0x60\n      add\n      0x40\n      mstore\n      dup1\n      0x60\n      dup2\n      mstore\n      0x20\n      add\n      0x00\n      dup2\n      mstore\n      0x20\n      add\n      0x60\n      dup2\n      mstore\n      pop\n      swap1\n      jump\t// out\n    tag_84:\n      mload(0x40)\n      dup1\n      0xc0\n      add\n      0x40\n      mstore\n      dup1\n      0x00\n      dup2\n      mstore\n      0x20\n      add\n      0x60\n      dup2\n      mstore\n      0x20\n      add\n      and(0xff, 0x00)\n      dup2\n      mstore\n      0x20\n      add\n      0x00\n      dup2\n      mstore\n      0x20\n      add\n      0x60\n      dup2\n      mstore\n      0x20\n      add\n      0x60\n      dup2\n      mstore\n      pop\n      swap1\n      jump\t// out\n        /* \"#utility.yul\":7:82   */\n    tag_95:\n        /* \"#utility.yul\":40:46   */\n      0x00\n        /* \"#utility.yul\":73:75   */\n      0x40\n        /* \"#utility.yul\":67:76   */\n      mload\n        /* \"#utility.yul\":57:76   */\n      swap1\n      pop\n        /* \"#utility.yul\":7:82   */\n      swap1\n      jump\t// out\n        /* \"#utility.yul\":88:205   */\n    tag_96:\n        /* \"#utility.yul\":197:198   */\n      0x00\n        /* \"#utility.yul\":194:195   */\n      dup1\n        /* \"#utility.yul\":187:199   */\n      revert\n        /* \"#utility.yul\":211:328   */\n    tag_97:\n        /* \"#utility.yul\":320:321   */\n      0x00\n        /* \"#utility.yul\":317:318   */\n      dup1\n        /* \"#utility.yul\":310:322   */\n      revert\n        /* \"#utility.yul\":334:420   */\n    tag_98:\n        /* \"#utility.yul\":369:376   */\n      0x00\n        /* \"#utility.yul\":409:413   */\n      0xff\n        /* \"#utility.yul\":402:407   */\n      dup3\n        /* \"#utility.yul\":398:414   */\n      and\n        /* \"#utility.yul\":387:414   */\n      swap1\n      pop\n        /* \"#utility.yul\":334:420   */\n      swap2\n      swap1\n      pop\n      jump\t// out\n        /* \"#utility.yul\":426:544   */\n    tag_99:\n        /* \"#utility.yul\":497:519   */\n      tag_154\n        /* \"#utility.yul\":513:518   */\n      dup2\n        /* \"#utility.yul\":497:519   */\n      tag_98\n      jump\t// in\n    tag_154:\n        /* \"#utility.yul\":490:495   */\n      dup2\n        /* \"#utility.yul\":487:520   */\n      eq\n        /* \"#utility.yul\":477:538   */\n      tag_155\n      jumpi\n        /* \"#utility.yul\":534:535   */\n      0x00\n        /* \"#utility.yul\":531:532   */\n      dup1\n        /* \"#utility.yul\":524:536   */\n      revert\n        /* \"#utility.yul\":477:538   */\n    tag_155:\n        /* \"#utility.yul\":426:544   */\n      pop\n      jump\t// out\n        /* \"#utility.yul\":550:685   */\n    tag_100:\n        /* \"#utility.yul\":594:599   */\n      0x00\n        /* \"#utility.yul\":632:638   */\n      dup2\n        /* \"#utility.yul\":619:639   */\n      calldataload\n        /* \"#utility.yul\":610:639   */\n      swap1\n      pop\n        /* \"#utility.yul\":648:679   */\n      tag_157\n        /* \"#utility.yul\":673:678   */\n      dup2\n        /* \"#utility.yul\":648:679   */\n      tag_99\n      jump\t// in\n    tag_157:\n        /* \"#utility.yul\":550:685   */\n      swap3\n      swap2\n      pop\n      pop\n      jump\t// out\n        /* \"#utility.yul\":691:768   */\n    tag_101:\n        /* \"#utility.yul\":728:735   */\n      0x00\n        /* \"#utility.yul\":757:762   */\n      dup2\n        /* \"#utility.yul\":746:762   */\n      swap1\n      pop\n        /* \"#utility.yul\":691:768   */\n      swap2\n      swap1\n      pop\n      jump\t// out\n        /* \"#utility.yul\":774:896   */\n    tag_102:\n        /* \"#utility.yul\":847:871   */\n      tag_160\n        /* \"#utility.yul\":865:870   */\n      dup2\n        /* \"#utility.yul\":847:871   */\n      tag_101\n      jump\t// in\n    tag_160:\n        /* \"#utility.yul\":840:845   */\n      dup2\n        /* \"#utility.yul\":837:872   */\n      eq\n        /* \"#utility.yul\":827:890   */\n      tag_161\n      jumpi\n        /* \"#utility.yul\":886:887   */\n      0x00\n        /* \"#utility.yul\":883:884   */\n      dup1\n        /* \"#utility.yul\":876:888   */\n      revert\n        /* \"#utility.yul\":827:890   */\n    tag_161:\n        /* \"#utility.yul\":774:896   */\n      pop\n      jump\t// out\n        /* \"#utility.yul\":902:1041   */\n    tag_103:\n        /* \"#utility.yul\":948:953   */\n      0x00\n        /* \"#utility.yul\":986:992   */\n      dup2\n        /* \"#utility.yul\":973:993   */\n      calldataload\n        /* \"#utility.yul\":964:993   */\n      swap1\n      pop\n        /* \"#utility.yul\":1002:1035   */\n      tag_163\n        /* \"#utility.yul\":1029:1034   */\n      dup2\n        /* \"#utility.yul\":1002:1035   */\n      tag_102\n      jump\t// in\n    tag_163:\n        /* \"#utility.yul\":902:1041   */\n      swap3\n      swap2\n      pop\n      pop\n      jump\t// out\n        /* \"#utility.yul\":1047:1517   */\n    tag_14:\n        /* \"#utility.yul\":1113:1119   */\n      0x00\n        /* \"#utility.yul\":1121:1127   */\n      dup1\n        /* \"#utility.yul\":1170:1172   */\n      0x40\n        /* \"#utility.yul\":1158:1167   */\n      dup4\n        /* \"#utility.yul\":1149:1156   */\n      dup6\n        /* \"#utility.yul\":1145:1168   */\n      sub\n        /* \"#utility.yul\":1141:1173   */\n      slt\n        /* \"#utility.yul\":1138:1257   */\n      iszero\n      tag_165\n      jumpi\n        /* \"#utility.yul\":1176:1255   */\n      tag_166\n      tag_96\n      jump\t// in\n    tag_166:\n        /* \"#utility.yul\":1138:1257   */\n    tag_165:\n        /* \"#utility.yul\":1296:1297   */\n      0x00\n        /* \"#utility.yul\":1321:1372   */\n      tag_167\n        /* \"#utility.yul\":1364:1371   */\n      dup6\n        /* \"#utility.yul\":1355:1361   */\n      dup3\n        /* \"#utility.yul\":1344:1353   */\n      dup7\n        /* \"#utility.yul\":1340:1362   */\n      add\n        /* \"#utility.yul\":1321:1372   */\n      tag_100\n      jump\t// in\n    tag_167:\n        /* \"#utility.yul\":1311:1372   */\n      swap3\n      pop\n        /* \"#utility.yul\":1267:1382   */\n      pop\n        /* \"#utility.yul\":1421:1423   */\n      0x20\n        /* \"#utility.yul\":1447:1500   */\n      tag_168\n        /* \"#utility.yul\":1492:1499   */\n      dup6\n        /* \"#utility.yul\":1483:1489   */\n      dup3\n        /* \"#utility.yul\":1472:1481   */\n      dup7\n        /* \"#utility.yul\":1468:1490   */\n      add\n        /* \"#utility.yul\":1447:1500   */\n      tag_103\n      jump\t// in\n    tag_168:\n        /* \"#utility.yul\":1437:1500   */\n      swap2\n      pop\n        /* \"#utility.yul\":1392:1510   */\n      pop\n        /* \"#utility.yul\":1047:1517   */\n      swap3\n      pop\n      swap3\n      swap1\n      pop\n      jump\t// out\n        /* \"#utility.yul\":1523:1640   */\n    tag_104:\n        /* \"#utility.yul\":1632:1633   */\n      0x00\n        /* \"#utility.yul\":1629:1630   */\n      dup1\n        /* \"#utility.yul\":1622:1634   */\n      revert\n        /* \"#utility.yul\":1646:1763   */\n    tag_105:\n        /* \"#utility.yul\":1755:1756   */\n      0x00\n        /* \"#utility.yul\":1752:1753   */\n      dup1\n        /* \"#utility.yul\":1745:1757   */\n      revert\n        /* \"#utility.yul\":1769:1871   */\n    tag_106:\n        /* \"#utility.yul\":1810:1816   */\n      0x00\n        /* \"#utility.yul\":1861:1863   */\n      0x1f\n        /* \"#utility.yul\":1857:1864   */\n      not\n        /* \"#utility.yul\":1852:1854   */\n      0x1f\n        /* \"#utility.yul\":1845:1850   */\n      dup4\n        /* \"#utility.yul\":1841:1855   */\n      add\n        /* \"#utility.yul\":1837:1865   */\n      and\n        /* \"#utility.yul\":1827:1865   */\n      swap1\n      pop\n        /* \"#utility.yul\":1769:1871   */\n      swap2\n      swap1\n      pop\n      jump\t// out\n        /* \"#utility.yul\":1877:2057   */\n    tag_107:\n        /* \"#utility.yul\":1925:2002   */\n      0x4e487b7100000000000000000000000000000000000000000000000000000000\n        /* \"#utility.yul\":1922:1923   */\n      0x00\n        /* \"#utility.yul\":1915:2003   */\n      mstore\n        /* \"#utility.yul\":2022:2026   */\n      0x41\n        /* \"#utility.yul\":2019:2020   */\n      0x04\n        /* \"#utility.yul\":2012:2027   */\n      mstore\n        /* \"#utility.yul\":2046:2050   */\n      0x24\n        /* \"#utility.yul\":2043:2044   */\n      0x00\n        /* \"#utility.yul\":2036:2051   */\n      revert\n        /* \"#utility.yul\":2063:2344   */\n    tag_108:\n        /* \"#utility.yul\":2146:2173   */\n      tag_174\n        /* \"#utility.yul\":2168:2172   */\n      dup3\n        /* \"#utility.yul\":2146:2173   */\n      tag_106\n      jump\t// in\n    tag_174:\n        /* \"#utility.yul\":2138:2144   */\n      dup2\n        /* \"#utility.yul\":2134:2174   */\n      add\n        /* \"#utility.yul\":2276:2282   */\n      dup2\n        /* \"#utility.yul\":2264:2274   */\n      dup2\n        /* \"#utility.yul\":2261:2283   */\n      lt\n        /* \"#utility.yul\":2240:2258   */\n      0xffffffffffffffff\n        /* \"#utility.yul\":2228:2238   */\n      dup3\n        /* \"#utility.yul\":2225:2259   */\n      gt\n        /* \"#utility.yul\":2222:2284   */\n      or\n        /* \"#utility.yul\":2219:2307   */\n      iszero\n      tag_175\n      jumpi\n        /* \"#utility.yul\":2287:2305   */\n      tag_176\n      tag_107\n      jump\t// in\n    tag_176:\n        /* \"#utility.yul\":2219:2307   */\n    tag_175:\n        /* \"#utility.yul\":2327:2337   */\n      dup1\n        /* \"#utility.yul\":2323:2325   */\n      0x40\n        /* \"#utility.yul\":2316:2338   */\n      mstore\n        /* \"#utility.yul\":2106:2344   */\n      pop\n        /* \"#utility.yul\":2063:2344   */\n      pop\n      pop\n      jump\t// out\n        /* \"#utility.yul\":2350:2479   */\n    tag_109:\n        /* \"#utility.yul\":2384:2390   */\n      0x00\n        /* \"#utility.yul\":2411:2431   */\n      tag_178\n      tag_95\n      jump\t// in\n    tag_178:\n        /* \"#utility.yul\":2401:2431   */\n      swap1\n      pop\n        /* \"#utility.yul\":2440:2473   */\n      tag_179\n        /* \"#utility.yul\":2468:2472   */\n      dup3\n        /* \"#utility.yul\":2460:2466   */\n      dup3\n        /* \"#utility.yul\":2440:2473   */\n      tag_108\n      jump\t// in\n    tag_179:\n        /* \"#utility.yul\":2350:2479   */\n      swap2\n      swap1\n      pop\n      jump\t// out\n        /* \"#utility.yul\":2485:2793   */\n    tag_110:\n        /* \"#utility.yul\":2547:2551   */\n      0x00\n        /* \"#utility.yul\":2637:2655   */\n      0xffffffffffffffff\n        /* \"#utility.yul\":2629:2635   */\n      dup3\n        /* \"#utility.yul\":2626:2656   */\n      gt\n        /* \"#utility.yul\":2623:2679   */\n      iszero\n      tag_181\n      jumpi\n        /* \"#utility.yul\":2659:2677   */\n      tag_182\n      tag_107\n      jump\t// in\n    tag_182:\n        /* \"#utility.yul\":2623:2679   */\n    tag_181:\n        /* \"#utility.yul\":2697:2726   */\n      tag_183\n        /* \"#utility.yul\":2719:2725   */\n      dup3\n        /* \"#utility.yul\":2697:2726   */\n      tag_106\n      jump\t// in\n    tag_183:\n        /* \"#utility.yul\":2689:2726   */\n      swap1\n      pop\n        /* \"#utility.yul\":2781:2785   */\n      0x20\n        /* \"#utility.yul\":2775:2779   */\n      dup2\n        /* \"#utility.yul\":2771:2786   */\n      add\n        /* \"#utility.yul\":2763:2786   */\n      swap1\n      pop\n        /* \"#utility.yul\":2485:2793   */\n      swap2\n      swap1\n      pop\n      jump\t// out\n        /* \"#utility.yul\":2799:2945   */\n    tag_111:\n        /* \"#utility.yul\":2896:2902   */\n      dup3\n        /* \"#utility.yul\":2891:2894   */\n      dup2\n        /* \"#utility.yul\":2886:2889   */\n      dup4\n        /* \"#utility.yul\":2873:2903   */\n      calldatacopy\n        /* \"#utility.yul\":2937:2938   */\n      0x00\n        /* \"#utility.yul\":2928:2934   */\n      dup4\n        /* \"#utility.yul\":2923:2926   */\n      dup4\n        /* \"#utility.yul\":2919:2935   */\n      add\n        /* \"#utility.yul\":2912:2939   */\n      mstore\n        /* \"#utility.yul\":2799:2945   */\n      pop\n      pop\n      pop\n      jump\t// out\n        /* \"#utility.yul\":2951:3376   */\n    tag_112:\n        /* \"#utility.yul\":3029:3034   */\n      0x00\n        /* \"#utility.yul\":3054:3120   */\n      tag_186\n        /* \"#utility.yul\":3070:3119   */\n      tag_187\n        /* \"#utility.yul\":3112:3118   */\n      dup5\n        /* \"#utility.yul\":3070:3119   */\n      tag_110\n      jump\t// in\n    tag_187:\n        /* \"#utility.yul\":3054:3120   */\n      tag_109\n      jump\t// in\n    tag_186:\n        /* \"#utility.yul\":3045:3120   */\n      swap1\n      pop\n        /* \"#utility.yul\":3143:3149   */\n      dup3\n        /* \"#utility.yul\":3136:3141   */\n      dup2\n        /* \"#utility.yul\":3129:3150   */\n      mstore\n        /* \"#utility.yul\":3181:3185   */\n      0x20\n        /* \"#utility.yul\":3174:3179   */\n      dup2\n        /* \"#utility.yul\":3170:3186   */\n      add\n        /* \"#utility.yul\":3219:3222   */\n      dup5\n        /* \"#utility.yul\":3210:3216   */\n      dup5\n        /* \"#utility.yul\":3205:3208   */\n      dup5\n        /* \"#utility.yul\":3201:3217   */\n      add\n        /* \"#utility.yul\":3198:3223   */\n      gt\n        /* \"#utility.yul\":3195:3307   */\n      iszero\n      tag_188\n      jumpi\n        /* \"#utility.yul\":3226:3305   */\n      tag_189\n      tag_105\n      jump\t// in\n    tag_189:\n        /* \"#utility.yul\":3195:3307   */\n    tag_188:\n        /* \"#utility.yul\":3316:3370   */\n      tag_190\n        /* \"#utility.yul\":3363:3369   */\n      dup5\n        /* \"#utility.yul\":3358:3361   */\n      dup3\n        /* \"#utility.yul\":3353:3356   */\n      dup6\n        /* \"#utility.yul\":3316:3370   */\n      tag_111\n      jump\t// in\n    tag_190:\n        /* \"#utility.yul\":3035:3376   */\n      pop\n        /* \"#utility.yul\":2951:3376   */\n      swap4\n      swap3\n      pop\n      pop\n      pop\n      jump\t// out\n        /* \"#utility.yul\":3396:3736   */\n    tag_113:\n        /* \"#utility.yul\":3452:3457   */\n      0x00\n        /* \"#utility.yul\":3501:3504   */\n      dup3\n        /* \"#utility.yul\":3494:3498   */\n      0x1f\n        /* \"#utility.yul\":3486:3492   */\n      dup4\n        /* \"#utility.yul\":3482:3499   */\n      add\n        /* \"#utility.yul\":3478:3505   */\n      slt\n        /* \"#utility.yul\":3468:3590   */\n      tag_192\n      jumpi\n        /* \"#utility.yul\":3509:3588   */\n      tag_193\n      tag_104\n      jump\t// in\n    tag_193:\n        /* \"#utility.yul\":3468:3590   */\n    tag_192:\n        /* \"#utility.yul\":3626:3632   */\n      dup2\n        /* \"#utility.yul\":3613:3633   */\n      calldataload\n        /* \"#utility.yul\":3651:3730   */\n      tag_194\n        /* \"#utility.yul\":3726:3729   */\n      dup5\n        /* \"#utility.yul\":3718:3724   */\n      dup3\n        /* \"#utility.yul\":3711:3715   */\n      0x20\n        /* \"#utility.yul\":3703:3709   */\n      dup7\n        /* \"#utility.yul\":3699:3716   */\n      add\n        /* \"#utility.yul\":3651:3730   */\n      tag_112\n      jump\t// in\n    tag_194:\n        /* \"#utility.yul\":3642:3730   */\n      swap2\n      pop\n        /* \"#utility.yul\":3458:3736   */\n      pop\n        /* \"#utility.yul\":3396:3736   */\n      swap3\n      swap2\n      pop\n      pop\n      jump\t// out\n        /* \"#utility.yul\":3742:4717   */\n    tag_18:\n        /* \"#utility.yul\":3837:3843   */\n      0x00\n        /* \"#utility.yul\":3845:3851   */\n      dup1\n        /* \"#utility.yul\":3853:3859   */\n      0x00\n        /* \"#utility.yul\":3902:3904   */\n      0x60\n        /* \"#utility.yul\":3890:3899   */\n      dup5\n        /* \"#utility.yul\":3881:3888   */\n      dup7\n        /* \"#utility.yul\":3877:3900   */\n      sub\n        /* \"#utility.yul\":3873:3905   */\n      slt\n        /* \"#utility.yul\":3870:3989   */\n      iszero\n      tag_196\n      jumpi\n        /* \"#utility.yul\":3908:3987   */\n      tag_197\n      tag_96\n      jump\t// in\n    tag_197:\n        /* \"#utility.yul\":3870:3989   */\n    tag_196:\n        /* \"#utility.yul\":4028:4029   */\n      0x00\n        /* \"#utility.yul\":4053:4104   */\n      tag_198\n        /* \"#utility.yul\":4096:4103   */\n      dup7\n        /* \"#utility.yul\":4087:4093   */\n      dup3\n        /* \"#utility.yul\":4076:4085   */\n      dup8\n        /* \"#utility.yul\":4072:4094   */\n      add\n        /* \"#utility.yul\":4053:4104   */\n      tag_100\n      jump\t// in\n    tag_198:\n        /* \"#utility.yul\":4043:4104   */\n      swap4\n      pop\n        /* \"#utility.yul\":3999:4114   */\n      pop\n        /* \"#utility.yul\":4181:4183   */\n      0x20\n        /* \"#utility.yul\":4170:4179   */\n      dup5\n        /* \"#utility.yul\":4166:4184   */\n      add\n        /* \"#utility.yul\":4153:4185   */\n      calldataload\n        /* \"#utility.yul\":4212:4230   */\n      0xffffffffffffffff\n        /* \"#utility.yul\":4204:4210   */\n      dup2\n        /* \"#utility.yul\":4201:4231   */\n      gt\n        /* \"#utility.yul\":4198:4315   */\n      iszero\n      tag_199\n      jumpi\n        /* \"#utility.yul\":4234:4313   */\n      tag_200\n      tag_97\n      jump\t// in\n    tag_200:\n        /* \"#utility.yul\":4198:4315   */\n    tag_199:\n        /* \"#utility.yul\":4339:4402   */\n      tag_201\n        /* \"#utility.yul\":4394:4401   */\n      dup7\n        /* \"#utility.yul\":4385:4391   */\n      dup3\n        /* \"#utility.yul\":4374:4383   */\n      dup8\n        /* \"#utility.yul\":4370:4392   */\n      add\n        /* \"#utility.yul\":4339:4402   */\n      tag_113\n      jump\t// in\n    tag_201:\n        /* \"#utility.yul\":4329:4402   */\n      swap3\n      pop\n        /* \"#utility.yul\":4124:4412   */\n      pop\n        /* \"#utility.yul\":4479:4481   */\n      0x40\n        /* \"#utility.yul\":4468:4477   */\n      dup5\n        /* \"#utility.yul\":4464:4482   */\n      add\n        /* \"#utility.yul\":4451:4483   */\n      calldataload\n        /* \"#utility.yul\":4510:4528   */\n      0xffffffffffffffff\n        /* \"#utility.yul\":4502:4508   */\n      dup2\n        /* \"#utility.yul\":4499:4529   */\n      gt\n        /* \"#utility.yul\":4496:4613   */\n      iszero\n      tag_202\n      jumpi\n        /* \"#utility.yul\":4532:4611   */\n      tag_203\n      tag_97\n      jump\t// in\n    tag_203:\n        /* \"#utility.yul\":4496:4613   */\n    tag_202:\n        /* \"#utility.yul\":4637:4700   */\n      tag_204\n        /* \"#utility.yul\":4692:4699   */\n      dup7\n        /* \"#utility.yul\":4683:4689   */\n      dup3\n        /* \"#utility.yul\":4672:4681   */\n      dup8\n        /* \"#utility.yul\":4668:4690   */\n      add\n        /* \"#utility.yul\":4637:4700   */\n      tag_113\n      jump\t// in\n    tag_204:\n        /* \"#utility.yul\":4627:4700   */\n      swap2\n      pop\n        /* \"#utility.yul\":4422:4710   */\n      pop\n        /* \"#utility.yul\":3742:4717   */\n      swap3\n      pop\n      swap3\n      pop\n      swap3\n      jump\t// out\n        /* \"#utility.yul\":4723:5048   */\n    tag_22:\n        /* \"#utility.yul\":4780:4786   */\n      0x00\n        /* \"#utility.yul\":4829:4831   */\n      0x20\n        /* \"#utility.yul\":4817:4826   */\n      dup3\n        /* \"#utility.yul\":4808:4815   */\n      dup5\n        /* \"#utility.yul\":4804:4827   */\n      sub\n        /* \"#utility.yul\":4800:4832   */\n      slt\n        /* \"#utility.yul\":4797:4916   */\n      iszero\n      tag_206\n      jumpi\n        /* \"#utility.yul\":4835:4914   */\n      tag_207\n      tag_96\n      jump\t// in\n    tag_207:\n        /* \"#utility.yul\":4797:4916   */\n    tag_206:\n        /* \"#utility.yul\":4955:4956   */\n      0x00\n        /* \"#utility.yul\":4980:5031   */\n      tag_208\n        /* \"#utility.yul\":5023:5030   */\n      dup5\n        /* \"#utility.yul\":5014:5020   */\n      dup3\n        /* \"#utility.yul\":5003:5012   */\n      dup6\n        /* \"#utility.yul\":4999:5021   */\n      add\n        /* \"#utility.yul\":4980:5031   */\n      tag_100\n      jump\t// in\n    tag_208:\n        /* \"#utility.yul\":4970:5031   */\n      swap2\n      pop\n        /* \"#utility.yul\":4926:5041   */\n      pop\n        /* \"#utility.yul\":4723:5048   */\n      swap3\n      swap2\n      pop\n      pop\n      jump\t// out\n        /* \"#utility.yul\":5054:5162   */\n    tag_114:\n        /* \"#utility.yul\":5131:5155   */\n      tag_210\n        /* \"#utility.yul\":5149:5154   */\n      dup2\n        /* \"#utility.yul\":5131:5155   */\n      tag_101\n      jump\t// in\n    tag_210:\n        /* \"#utility.yul\":5126:5129   */\n      dup3\n        /* \"#utility.yul\":5119:5156   */\n      mstore\n        /* \"#utility.yul\":5054:5162   */\n      pop\n      pop\n      jump\t// out\n        /* \"#utility.yul\":5168:5267   */\n    tag_115:\n        /* \"#utility.yul\":5220:5226   */\n      0x00\n        /* \"#utility.yul\":5254:5259   */\n      dup2\n        /* \"#utility.yul\":5248:5260   */\n      mload\n        /* \"#utility.yul\":5238:5260   */\n      swap1\n      pop\n        /* \"#utility.yul\":5168:5267   */\n      swap2\n      swap1\n      pop\n      jump\t// out\n        /* \"#utility.yul\":5273:5432   */\n    tag_116:\n        /* \"#utility.yul\":5347:5358   */\n      0x00\n        /* \"#utility.yul\":5381:5387   */\n      dup3\n        /* \"#utility.yul\":5376:5379   */\n      dup3\n        /* \"#utility.yul\":5369:5388   */\n      mstore\n        /* \"#utility.yul\":5421:5425   */\n      0x20\n        /* \"#utility.yul\":5416:5419   */\n      dup3\n        /* \"#utility.yul\":5412:5426   */\n      add\n        /* \"#utility.yul\":5397:5426   */\n      swap1\n      pop\n        /* \"#utility.yul\":5273:5432   */\n      swap3\n      swap2\n      pop\n      pop\n      jump\t// out\n        /* \"#utility.yul\":5438:5684   */\n    tag_117:\n        /* \"#utility.yul\":5519:5520   */\n      0x00\n        /* \"#utility.yul\":5529:5642   */\n    tag_214:\n        /* \"#utility.yul\":5543:5549   */\n      dup4\n        /* \"#utility.yul\":5540:5541   */\n      dup2\n        /* \"#utility.yul\":5537:5550   */\n      lt\n        /* \"#utility.yul\":5529:5642   */\n      iszero\n      tag_216\n      jumpi\n        /* \"#utility.yul\":5628:5629   */\n      dup1\n        /* \"#utility.yul\":5623:5626   */\n      dup3\n        /* \"#utility.yul\":5619:5630   */\n      add\n        /* \"#utility.yul\":5613:5631   */\n      mload\n        /* \"#utility.yul\":5609:5610   */\n      dup2\n        /* \"#utility.yul\":5604:5607   */\n      dup5\n        /* \"#utility.yul\":5600:5611   */\n      add\n        /* \"#utility.yul\":5593:5632   */\n      mstore\n        /* \"#utility.yul\":5565:5567   */\n      0x20\n        /* \"#utility.yul\":5562:5563   */\n      dup2\n        /* \"#utility.yul\":5558:5568   */\n      add\n        /* \"#utility.yul\":5553:5568   */\n      swap1\n      pop\n        /* \"#utility.yul\":5529:5642   */\n      jump(tag_214)\n    tag_216:\n        /* \"#utility.yul\":5676:5677   */\n      0x00\n        /* \"#utility.yul\":5667:5673   */\n      dup5\n        /* \"#utility.yul\":5662:5665   */\n      dup5\n        /* \"#utility.yul\":5658:5674   */\n      add\n        /* \"#utility.yul\":5651:5678   */\n      mstore\n        /* \"#utility.yul\":5500:5684   */\n      pop\n        /* \"#utility.yul\":5438:5684   */\n      pop\n      pop\n      pop\n      jump\t// out\n        /* \"#utility.yul\":5690:6047   */\n    tag_118:\n        /* \"#utility.yul\":5768:5771   */\n      0x00\n        /* \"#utility.yul\":5796:5835   */\n      tag_218\n        /* \"#utility.yul\":5829:5834   */\n      dup3\n        /* \"#utility.yul\":5796:5835   */\n      tag_115\n      jump\t// in\n    tag_218:\n        /* \"#utility.yul\":5851:5912   */\n      tag_219\n        /* \"#utility.yul\":5905:5911   */\n      dup2\n        /* \"#utility.yul\":5900:5903   */\n      dup6\n        /* \"#utility.yul\":5851:5912   */\n      tag_116\n      jump\t// in\n    tag_219:\n        /* \"#utility.yul\":5844:5912   */\n      swap4\n      pop\n        /* \"#utility.yul\":5921:5986   */\n      tag_220\n        /* \"#utility.yul\":5979:5985   */\n      dup2\n        /* \"#utility.yul\":5974:5977   */\n      dup6\n        /* \"#utility.yul\":5967:5971   */\n      0x20\n        /* \"#utility.yul\":5960:5965   */\n      dup7\n        /* \"#utility.yul\":5956:5972   */\n      add\n        /* \"#utility.yul\":5921:5986   */\n      tag_117\n      jump\t// in\n    tag_220:\n        /* \"#utility.yul\":6011:6040   */\n      tag_221\n        /* \"#utility.yul\":6033:6039   */\n      dup2\n        /* \"#utility.yul\":6011:6040   */\n      tag_106\n      jump\t// in\n    tag_221:\n        /* \"#utility.yul\":6006:6009   */\n      dup5\n        /* \"#utility.yul\":6002:6041   */\n      add\n        /* \"#utility.yul\":5995:6041   */\n      swap2\n      pop\n        /* \"#utility.yul\":5772:6047   */\n      pop\n        /* \"#utility.yul\":5690:6047   */\n      swap3\n      swap2\n      pop\n      pop\n      jump\t// out\n        /* \"#utility.yul\":6121:7099   */\n    tag_119:\n        /* \"#utility.yul\":6244:6247   */\n      0x00\n        /* \"#utility.yul\":6280:6284   */\n      0x80\n        /* \"#utility.yul\":6275:6278   */\n      dup4\n        /* \"#utility.yul\":6271:6285   */\n      add\n        /* \"#utility.yul\":6365:6369   */\n      0x00\n        /* \"#utility.yul\":6358:6363   */\n      dup4\n        /* \"#utility.yul\":6354:6370   */\n      add\n        /* \"#utility.yul\":6348:6371   */\n      mload\n        /* \"#utility.yul\":6384:6447   */\n      tag_223\n        /* \"#utility.yul\":6441:6445   */\n      0x00\n        /* \"#utility.yul\":6436:6439   */\n      dup7\n        /* \"#utility.yul\":6432:6446   */\n      add\n        /* \"#utility.yul\":6418:6430   */\n      dup3\n        /* \"#utility.yul\":6384:6447   */\n      tag_114\n      jump\t// in\n    tag_223:\n        /* \"#utility.yul\":6295:6457   */\n      pop\n        /* \"#utility.yul\":6547:6551   */\n      0x20\n        /* \"#utility.yul\":6540:6545   */\n      dup4\n        /* \"#utility.yul\":6536:6552   */\n      add\n        /* \"#utility.yul\":6530:6553   */\n      mload\n        /* \"#utility.yul\":6566:6629   */\n      tag_224\n        /* \"#utility.yul\":6623:6627   */\n      0x20\n        /* \"#utility.yul\":6618:6621   */\n      dup7\n        /* \"#utility.yul\":6614:6628   */\n      add\n        /* \"#utility.yul\":6600:6612   */\n      dup3\n        /* \"#utility.yul\":6566:6629   */\n      tag_114\n      jump\t// in\n    tag_224:\n        /* \"#utility.yul\":6467:6639   */\n      pop\n        /* \"#utility.yul\":6723:6727   */\n      0x40\n        /* \"#utility.yul\":6716:6721   */\n      dup4\n        /* \"#utility.yul\":6712:6728   */\n      add\n        /* \"#utility.yul\":6706:6729   */\n      mload\n        /* \"#utility.yul\":6742:6805   */\n      tag_225\n        /* \"#utility.yul\":6799:6803   */\n      0x40\n        /* \"#utility.yul\":6794:6797   */\n      dup7\n        /* \"#utility.yul\":6790:6804   */\n      add\n        /* \"#utility.yul\":6776:6788   */\n      dup3\n        /* \"#utility.yul\":6742:6805   */\n      tag_114\n      jump\t// in\n    tag_225:\n        /* \"#utility.yul\":6649:6815   */\n      pop\n        /* \"#utility.yul\":6909:6913   */\n      0x60\n        /* \"#utility.yul\":6902:6907   */\n      dup4\n        /* \"#utility.yul\":6898:6914   */\n      add\n        /* \"#utility.yul\":6892:6915   */\n      mload\n        /* \"#utility.yul\":6962:6965   */\n      dup5\n        /* \"#utility.yul\":6956:6960   */\n      dup3\n        /* \"#utility.yul\":6952:6966   */\n      sub\n        /* \"#utility.yul\":6945:6949   */\n      0x60\n        /* \"#utility.yul\":6940:6943   */\n      dup7\n        /* \"#utility.yul\":6936:6950   */\n      add\n        /* \"#utility.yul\":6929:6967   */\n      mstore\n        /* \"#utility.yul\":6988:7061   */\n      tag_226\n        /* \"#utility.yul\":7056:7060   */\n      dup3\n        /* \"#utility.yul\":7042:7054   */\n      dup3\n        /* \"#utility.yul\":6988:7061   */\n      tag_118\n      jump\t// in\n    tag_226:\n        /* \"#utility.yul\":6980:7061   */\n      swap2\n      pop\n        /* \"#utility.yul\":6825:7072   */\n      pop\n        /* \"#utility.yul\":7089:7093   */\n      dup1\n        /* \"#utility.yul\":7082:7093   */\n      swap2\n      pop\n        /* \"#utility.yul\":6249:7099   */\n      pop\n        /* \"#utility.yul\":6121:7099   */\n      swap3\n      swap2\n      pop\n      pop\n      jump\t// out\n        /* \"#utility.yul\":7105:7486   */\n    tag_25:\n        /* \"#utility.yul\":7252:7256   */\n      0x00\n        /* \"#utility.yul\":7290:7292   */\n      0x20\n        /* \"#utility.yul\":7279:7288   */\n      dup3\n        /* \"#utility.yul\":7275:7293   */\n      add\n        /* \"#utility.yul\":7267:7293   */\n      swap1\n      pop\n        /* \"#utility.yul\":7339:7348   */\n      dup2\n        /* \"#utility.yul\":7333:7337   */\n      dup2\n        /* \"#utility.yul\":7329:7349   */\n      sub\n        /* \"#utility.yul\":7325:7326   */\n      0x00\n        /* \"#utility.yul\":7314:7323   */\n      dup4\n        /* \"#utility.yul\":7310:7327   */\n      add\n        /* \"#utility.yul\":7303:7350   */\n      mstore\n        /* \"#utility.yul\":7367:7479   */\n      tag_228\n        /* \"#utility.yul\":7474:7478   */\n      dup2\n        /* \"#utility.yul\":7465:7471   */\n      dup5\n        /* \"#utility.yul\":7367:7479   */\n      tag_119\n      jump\t// in\n    tag_228:\n        /* \"#utility.yul\":7359:7479   */\n      swap1\n      pop\n        /* \"#utility.yul\":7105:7486   */\n      swap3\n      swap2\n      pop\n      pop\n      jump\t// out\n        /* \"#utility.yul\":7492:8429   */\n    tag_28:\n        /* \"#utility.yul\":7584:7590   */\n      0x00\n        /* \"#utility.yul\":7592:7598   */\n      dup1\n        /* \"#utility.yul\":7600:7606   */\n      0x00\n        /* \"#utility.yul\":7608:7614   */\n      dup1\n        /* \"#utility.yul\":7657:7660   */\n      0x80\n        /* \"#utility.yul\":7645:7654   */\n      dup6\n        /* \"#utility.yul\":7636:7643   */\n      dup8\n        /* \"#utility.yul\":7632:7655   */\n      sub\n        /* \"#utility.yul\":7628:7661   */\n      slt\n        /* \"#utility.yul\":7625:7745   */\n      iszero\n      tag_230\n      jumpi\n        /* \"#utility.yul\":7664:7743   */\n      tag_231\n      tag_96\n      jump\t// in\n    tag_231:\n        /* \"#utility.yul\":7625:7745   */\n    tag_230:\n        /* \"#utility.yul\":7784:7785   */\n      0x00\n        /* \"#utility.yul\":7809:7860   */\n      tag_232\n        /* \"#utility.yul\":7852:7859   */\n      dup8\n        /* \"#utility.yul\":7843:7849   */\n      dup3\n        /* \"#utility.yul\":7832:7841   */\n      dup9\n        /* \"#utility.yul\":7828:7850   */\n      add\n        /* \"#utility.yul\":7809:7860   */\n      tag_100\n      jump\t// in\n    tag_232:\n        /* \"#utility.yul\":7799:7860   */\n      swap5\n      pop\n        /* \"#utility.yul\":7755:7870   */\n      pop\n        /* \"#utility.yul\":7937:7939   */\n      0x20\n        /* \"#utility.yul\":7926:7935   */\n      dup6\n        /* \"#utility.yul\":7922:7940   */\n      add\n        /* \"#utility.yul\":7909:7941   */\n      calldataload\n        /* \"#utility.yul\":7968:7986   */\n      0xffffffffffffffff\n        /* \"#utility.yul\":7960:7966   */\n      dup2\n        /* \"#utility.yul\":7957:7987   */\n      gt\n        /* \"#utility.yul\":7954:8071   */\n      iszero\n      tag_233\n      jumpi\n        /* \"#utility.yul\":7990:8069   */\n      tag_234\n      tag_97\n      jump\t// in\n    tag_234:\n        /* \"#utility.yul\":7954:8071   */\n    tag_233:\n        /* \"#utility.yul\":8095:8158   */\n      tag_235\n        /* \"#utility.yul\":8150:8157   */\n      dup8\n        /* \"#utility.yul\":8141:8147   */\n      dup3\n        /* \"#utility.yul\":8130:8139   */\n      dup9\n        /* \"#utility.yul\":8126:8148   */\n      add\n        /* \"#utility.yul\":8095:8158   */\n      tag_113\n      jump\t// in\n    tag_235:\n        /* \"#utility.yul\":8085:8158   */\n      swap4\n      pop\n        /* \"#utility.yul\":7880:8168   */\n      pop\n        /* \"#utility.yul\":8207:8209   */\n      0x40\n        /* \"#utility.yul\":8233:8284   */\n      tag_236\n        /* \"#utility.yul\":8276:8283   */\n      dup8\n        /* \"#utility.yul\":8267:8273   */\n      dup3\n        /* \"#utility.yul\":8256:8265   */\n      dup9\n        /* \"#utility.yul\":8252:8274   */\n      add\n        /* \"#utility.yul\":8233:8284   */\n      tag_100\n      jump\t// in\n    tag_236:\n        /* \"#utility.yul\":8223:8284   */\n      swap3\n      pop\n        /* \"#utility.yul\":8178:8294   */\n      pop\n        /* \"#utility.yul\":8333:8335   */\n      0x60\n        /* \"#utility.yul\":8359:8412   */\n      tag_237\n        /* \"#utility.yul\":8404:8411   */\n      dup8\n        /* \"#utility.yul\":8395:8401   */\n      dup3\n        /* \"#utility.yul\":8384:8393   */\n      dup9\n        /* \"#utility.yul\":8380:8402   */\n      add\n        /* \"#utility.yul\":8359:8412   */\n      tag_103\n      jump\t// in\n    tag_237:\n        /* \"#utility.yul\":8349:8412   */\n      swap2\n      pop\n        /* \"#utility.yul\":8304:8422   */\n      pop\n        /* \"#utility.yul\":7492:8429   */\n      swap3\n      swap6\n      swap2\n      swap5\n      pop\n      swap3\n      pop\n      jump\t// out\n        /* \"#utility.yul\":8487:9324   */\n    tag_120:\n        /* \"#utility.yul\":8594:8597   */\n      0x00\n        /* \"#utility.yul\":8630:8634   */\n      0x60\n        /* \"#utility.yul\":8625:8628   */\n      dup4\n        /* \"#utility.yul\":8621:8635   */\n      add\n        /* \"#utility.yul\":8717:8721   */\n      0x00\n        /* \"#utility.yul\":8710:8715   */\n      dup4\n        /* \"#utility.yul\":8706:8722   */\n      add\n        /* \"#utility.yul\":8700:8723   */\n      mload\n        /* \"#utility.yul\":8770:8773   */\n      dup5\n        /* \"#utility.yul\":8764:8768   */\n      dup3\n        /* \"#utility.yul\":8760:8774   */\n      sub\n        /* \"#utility.yul\":8753:8757   */\n      0x00\n        /* \"#utility.yul\":8748:8751   */\n      dup7\n        /* \"#utility.yul\":8744:8758   */\n      add\n        /* \"#utility.yul\":8737:8775   */\n      mstore\n        /* \"#utility.yul\":8796:8869   */\n      tag_239\n        /* \"#utility.yul\":8864:8868   */\n      dup3\n        /* \"#utility.yul\":8850:8862   */\n      dup3\n        /* \"#utility.yul\":8796:8869   */\n      tag_118\n      jump\t// in\n    tag_239:\n        /* \"#utility.yul\":8788:8869   */\n      swap2\n      pop\n        /* \"#utility.yul\":8645:8880   */\n      pop\n        /* \"#utility.yul\":8960:8964   */\n      0x20\n        /* \"#utility.yul\":8953:8958   */\n      dup4\n        /* \"#utility.yul\":8949:8965   */\n      add\n        /* \"#utility.yul\":8943:8966   */\n      mload\n        /* \"#utility.yul\":8979:9042   */\n      tag_240\n        /* \"#utility.yul\":9036:9040   */\n      0x20\n        /* \"#utility.yul\":9031:9034   */\n      dup7\n        /* \"#utility.yul\":9027:9041   */\n      add\n        /* \"#utility.yul\":9013:9025   */\n      dup3\n        /* \"#utility.yul\":8979:9042   */\n      tag_114\n      jump\t// in\n    tag_240:\n        /* \"#utility.yul\":8890:9052   */\n      pop\n        /* \"#utility.yul\":9134:9138   */\n      0x40\n        /* \"#utility.yul\":9127:9132   */\n      dup4\n        /* \"#utility.yul\":9123:9139   */\n      add\n        /* \"#utility.yul\":9117:9140   */\n      mload\n        /* \"#utility.yul\":9187:9190   */\n      dup5\n        /* \"#utility.yul\":9181:9185   */\n      dup3\n        /* \"#utility.yul\":9177:9191   */\n      sub\n        /* \"#utility.yul\":9170:9174   */\n      0x40\n        /* \"#utility.yul\":9165:9168   */\n      dup7\n        /* \"#utility.yul\":9161:9175   */\n      add\n        /* \"#utility.yul\":9154:9192   */\n      mstore\n        /* \"#utility.yul\":9213:9286   */\n      tag_241\n        /* \"#utility.yul\":9281:9285   */\n      dup3\n        /* \"#utility.yul\":9267:9279   */\n      dup3\n        /* \"#utility.yul\":9213:9286   */\n      tag_118\n      jump\t// in\n    tag_241:\n        /* \"#utility.yul\":9205:9286   */\n      swap2\n      pop\n        /* \"#utility.yul\":9062:9297   */\n      pop\n        /* \"#utility.yul\":9314:9318   */\n      dup1\n        /* \"#utility.yul\":9307:9318   */\n      swap2\n      pop\n        /* \"#utility.yul\":8599:9324   */\n      pop\n        /* \"#utility.yul\":8487:9324   */\n      swap3\n      swap2\n      pop\n      pop\n      jump\t// out\n        /* \"#utility.yul\":9330:9679   */\n    tag_34:\n        /* \"#utility.yul\":9461:9465   */\n      0x00\n        /* \"#utility.yul\":9499:9501   */\n      0x20\n        /* \"#utility.yul\":9488:9497   */\n      dup3\n        /* \"#utility.yul\":9484:9502   */\n      add\n        /* \"#utility.yul\":9476:9502   */\n      swap1\n      pop\n        /* \"#utility.yul\":9548:9557   */\n      dup2\n        /* \"#utility.yul\":9542:9546   */\n      dup2\n        /* \"#utility.yul\":9538:9558   */\n      sub\n        /* \"#utility.yul\":9534:9535   */\n      0x00\n        /* \"#utility.yul\":9523:9532   */\n      dup4\n        /* \"#utility.yul\":9519:9536   */\n      add\n        /* \"#utility.yul\":9512:9559   */\n      mstore\n        /* \"#utility.yul\":9576:9672   */\n      tag_243\n        /* \"#utility.yul\":9667:9671   */\n      dup2\n        /* \"#utility.yul\":9658:9664   */\n      dup5\n        /* \"#utility.yul\":9576:9672   */\n      tag_120\n      jump\t// in\n    tag_243:\n        /* \"#utility.yul\":9568:9672   */\n      swap1\n      pop\n        /* \"#utility.yul\":9330:9679   */\n      swap3\n      swap2\n      pop\n      pop\n      jump\t// out\n        /* \"#utility.yul\":9685:10618   */\n    tag_37:\n        /* \"#utility.yul\":9775:9781   */\n      0x00\n        /* \"#utility.yul\":9783:9789   */\n      dup1\n        /* \"#utility.yul\":9791:9797   */\n      0x00\n        /* \"#utility.yul\":9799:9805   */\n      dup1\n        /* \"#utility.yul\":9848:9851   */\n      0x80\n        /* \"#utility.yul\":9836:9845   */\n      dup6\n        /* \"#utility.yul\":9827:9834   */\n      dup8\n        /* \"#utility.yul\":9823:9846   */\n      sub\n        /* \"#utility.yul\":9819:9852   */\n      slt\n        /* \"#utility.yul\":9816:9936   */\n      iszero\n      tag_245\n      jumpi\n        /* \"#utility.yul\":9855:9934   */\n      tag_246\n      tag_96\n      jump\t// in\n    tag_246:\n        /* \"#utility.yul\":9816:9936   */\n    tag_245:\n        /* \"#utility.yul\":9975:9976   */\n      0x00\n        /* \"#utility.yul\":10000:10051   */\n      tag_247\n        /* \"#utility.yul\":10043:10050   */\n      dup8\n        /* \"#utility.yul\":10034:10040   */\n      dup3\n        /* \"#utility.yul\":10023:10032   */\n      dup9\n        /* \"#utility.yul\":10019:10041   */\n      add\n        /* \"#utility.yul\":10000:10051   */\n      tag_100\n      jump\t// in\n    tag_247:\n        /* \"#utility.yul\":9990:10051   */\n      swap5\n      pop\n        /* \"#utility.yul\":9946:10061   */\n      pop\n        /* \"#utility.yul\":10100:10102   */\n      0x20\n        /* \"#utility.yul\":10126:10177   */\n      tag_248\n        /* \"#utility.yul\":10169:10176   */\n      dup8\n        /* \"#utility.yul\":10160:10166   */\n      dup3\n        /* \"#utility.yul\":10149:10158   */\n      dup9\n        /* \"#utility.yul\":10145:10167   */\n      add\n        /* \"#utility.yul\":10126:10177   */\n      tag_100\n      jump\t// in\n    tag_248:\n        /* \"#utility.yul\":10116:10177   */\n      swap4\n      pop\n        /* \"#utility.yul\":10071:10187   */\n      pop\n        /* \"#utility.yul\":10226:10228   */\n      0x40\n        /* \"#utility.yul\":10252:10303   */\n      tag_249\n        /* \"#utility.yul\":10295:10302   */\n      dup8\n        /* \"#utility.yul\":10286:10292   */\n      dup3\n        /* \"#utility.yul\":10275:10284   */\n      dup9\n        /* \"#utility.yul\":10271:10293   */\n      add\n        /* \"#utility.yul\":10252:10303   */\n      tag_100\n      jump\t// in\n    tag_249:\n        /* \"#utility.yul\":10242:10303   */\n      swap3\n      pop\n        /* \"#utility.yul\":10197:10313   */\n      pop\n        /* \"#utility.yul\":10380:10382   */\n      0x60\n        /* \"#utility.yul\":10369:10378   */\n      dup6\n        /* \"#utility.yul\":10365:10383   */\n      add\n        /* \"#utility.yul\":10352:10384   */\n      calldataload\n        /* \"#utility.yul\":10411:10429   */\n      0xffffffffffffffff\n        /* \"#utility.yul\":10403:10409   */\n      dup2\n        /* \"#utility.yul\":10400:10430   */\n      gt\n        /* \"#utility.yul\":10397:10514   */\n      iszero\n      tag_250\n      jumpi\n        /* \"#utility.yul\":10433:10512   */\n      tag_251\n      tag_97\n      jump\t// in\n    tag_251:\n        /* \"#utility.yul\":10397:10514   */\n    tag_250:\n        /* \"#utility.yul\":10538:10601   */\n      tag_252\n        /* \"#utility.yul\":10593:10600   */\n      dup8\n        /* \"#utility.yul\":10584:10590   */\n      dup3\n        /* \"#utility.yul\":10573:10582   */\n      dup9\n        /* \"#utility.yul\":10569:10591   */\n      add\n        /* \"#utility.yul\":10538:10601   */\n      tag_113\n      jump\t// in\n    tag_252:\n        /* \"#utility.yul\":10528:10601   */\n      swap2\n      pop\n        /* \"#utility.yul\":10323:10611   */\n      pop\n        /* \"#utility.yul\":9685:10618   */\n      swap3\n      swap6\n      swap2\n      swap5\n      pop\n      swap3\n      pop\n      jump\t// out\n        /* \"#utility.yul\":10624:10726   */\n    tag_121:\n        /* \"#utility.yul\":10697:10719   */\n      tag_254\n        /* \"#utility.yul\":10713:10718   */\n      dup2\n        /* \"#utility.yul\":10697:10719   */\n      tag_98\n      jump\t// in\n    tag_254:\n        /* \"#utility.yul\":10692:10695   */\n      dup3\n        /* \"#utility.yul\":10685:10720   */\n      mstore\n        /* \"#utility.yul\":10624:10726   */\n      pop\n      pop\n      jump\t// out\n        /* \"#utility.yul\":10732:10846   */\n    tag_122:\n        /* \"#utility.yul\":10799:10805   */\n      0x00\n        /* \"#utility.yul\":10833:10838   */\n      dup2\n        /* \"#utility.yul\":10827:10839   */\n      mload\n        /* \"#utility.yul\":10817:10839   */\n      swap1\n      pop\n        /* \"#utility.yul\":10732:10846   */\n      swap2\n      swap1\n      pop\n      jump\t// out\n        /* \"#utility.yul\":10852:11026   */\n    tag_123:\n        /* \"#utility.yul\":10941:10952   */\n      0x00\n        /* \"#utility.yul\":10975:10981   */\n      dup3\n        /* \"#utility.yul\":10970:10973   */\n      dup3\n        /* \"#utility.yul\":10963:10982   */\n      mstore\n        /* \"#utility.yul\":11015:11019   */\n      0x20\n        /* \"#utility.yul\":11010:11013   */\n      dup3\n        /* \"#utility.yul\":11006:11020   */\n      add\n        /* \"#utility.yul\":10991:11020   */\n      swap1\n      pop\n        /* \"#utility.yul\":10852:11026   */\n      swap3\n      swap2\n      pop\n      pop\n      jump\t// out\n        /* \"#utility.yul\":11032:11164   */\n    tag_124:\n        /* \"#utility.yul\":11099:11103   */\n      0x00\n        /* \"#utility.yul\":11122:11125   */\n      dup2\n        /* \"#utility.yul\":11114:11125   */\n      swap1\n      pop\n        /* \"#utility.yul\":11152:11156   */\n      0x20\n        /* \"#utility.yul\":11147:11150   */\n      dup3\n        /* \"#utility.yul\":11143:11157   */\n      add\n        /* \"#utility.yul\":11135:11157   */\n      swap1\n      pop\n        /* \"#utility.yul\":11032:11164   */\n      swap2\n      swap1\n      pop\n      jump\t// out\n        /* \"#utility.yul\":11170:11349   */\n    tag_125:\n        /* \"#utility.yul\":11239:11249   */\n      0x00\n        /* \"#utility.yul\":11260:11306   */\n      tag_259\n        /* \"#utility.yul\":11302:11305   */\n      dup4\n        /* \"#utility.yul\":11294:11300   */\n      dup4\n        /* \"#utility.yul\":11260:11306   */\n      tag_114\n      jump\t// in\n    tag_259:\n        /* \"#utility.yul\":11338:11342   */\n      0x20\n        /* \"#utility.yul\":11333:11336   */\n      dup4\n        /* \"#utility.yul\":11329:11343   */\n      add\n        /* \"#utility.yul\":11315:11343   */\n      swap1\n      pop\n        /* \"#utility.yul\":11170:11349   */\n      swap3\n      swap2\n      pop\n      pop\n      jump\t// out\n        /* \"#utility.yul\":11355:11468   */\n    tag_126:\n        /* \"#utility.yul\":11425:11429   */\n      0x00\n        /* \"#utility.yul\":11457:11461   */\n      0x20\n        /* \"#utility.yul\":11452:11455   */\n      dup3\n        /* \"#utility.yul\":11448:11462   */\n      add\n        /* \"#utility.yul\":11440:11462   */\n      swap1\n      pop\n        /* \"#utility.yul\":11355:11468   */\n      swap2\n      swap1\n      pop\n      jump\t// out\n        /* \"#utility.yul\":11504:12216   */\n    tag_127:\n        /* \"#utility.yul\":11613:11616   */\n      0x00\n        /* \"#utility.yul\":11642:11696   */\n      tag_262\n        /* \"#utility.yul\":11690:11695   */\n      dup3\n        /* \"#utility.yul\":11642:11696   */\n      tag_122\n      jump\t// in\n    tag_262:\n        /* \"#utility.yul\":11712:11788   */\n      tag_263\n        /* \"#utility.yul\":11781:11787   */\n      dup2\n        /* \"#utility.yul\":11776:11779   */\n      dup6\n        /* \"#utility.yul\":11712:11788   */\n      tag_123\n      jump\t// in\n    tag_263:\n        /* \"#utility.yul\":11705:11788   */\n      swap4\n      pop\n        /* \"#utility.yul\":11812:11868   */\n      tag_264\n        /* \"#utility.yul\":11862:11867   */\n      dup4\n        /* \"#utility.yul\":11812:11868   */\n      tag_124\n      jump\t// in\n    tag_264:\n        /* \"#utility.yul\":11891:11898   */\n      dup1\n        /* \"#utility.yul\":11922:11923   */\n      0x00\n        /* \"#utility.yul\":11907:12191   */\n    tag_265:\n        /* \"#utility.yul\":11932:11938   */\n      dup4\n        /* \"#utility.yul\":11929:11930   */\n      dup2\n        /* \"#utility.yul\":11926:11939   */\n      lt\n        /* \"#utility.yul\":11907:12191   */\n      iszero\n      tag_267\n      jumpi\n        /* \"#utility.yul\":12008:12014   */\n      dup2\n        /* \"#utility.yul\":12002:12015   */\n      mload\n        /* \"#utility.yul\":12035:12098   */\n      tag_268\n        /* \"#utility.yul\":12094:12097   */\n      dup9\n        /* \"#utility.yul\":12079:12092   */\n      dup3\n        /* \"#utility.yul\":12035:12098   */\n      tag_125\n      jump\t// in\n    tag_268:\n        /* \"#utility.yul\":12028:12098   */\n      swap8\n      pop\n        /* \"#utility.yul\":12121:12181   */\n      tag_269\n        /* \"#utility.yul\":12174:12180   */\n      dup4\n        /* \"#utility.yul\":12121:12181   */\n      tag_126\n      jump\t// in\n    tag_269:\n        /* \"#utility.yul\":12111:12181   */\n      swap3\n      pop\n        /* \"#utility.yul\":11967:12191   */\n      pop\n        /* \"#utility.yul\":11954:11955   */\n      0x01\n        /* \"#utility.yul\":11951:11952   */\n      dup2\n        /* \"#utility.yul\":11947:11956   */\n      add\n        /* \"#utility.yul\":11942:11956   */\n      swap1\n      pop\n        /* \"#utility.yul\":11907:12191   */\n      jump(tag_265)\n    tag_267:\n        /* \"#utility.yul\":11911:11925   */\n      pop\n        /* \"#utility.yul\":12207:12210   */\n      dup6\n        /* \"#utility.yul\":12200:12210   */\n      swap4\n      pop\n        /* \"#utility.yul\":11618:12216   */\n      pop\n      pop\n      pop\n        /* \"#utility.yul\":11504:12216   */\n      swap3\n      swap2\n      pop\n      pop\n      jump\t// out\n        /* \"#utility.yul\":12286:13801   */\n    tag_128:\n        /* \"#utility.yul\":12405:12408   */\n      0x00\n        /* \"#utility.yul\":12441:12445   */\n      0xc0\n        /* \"#utility.yul\":12436:12439   */\n      dup4\n        /* \"#utility.yul\":12432:12446   */\n      add\n        /* \"#utility.yul\":12526:12530   */\n      0x00\n        /* \"#utility.yul\":12519:12524   */\n      dup4\n        /* \"#utility.yul\":12515:12531   */\n      add\n        /* \"#utility.yul\":12509:12532   */\n      mload\n        /* \"#utility.yul\":12545:12608   */\n      tag_271\n        /* \"#utility.yul\":12602:12606   */\n      0x00\n        /* \"#utility.yul\":12597:12600   */\n      dup7\n        /* \"#utility.yul\":12593:12607   */\n      add\n        /* \"#utility.yul\":12579:12591   */\n      dup3\n        /* \"#utility.yul\":12545:12608   */\n      tag_114\n      jump\t// in\n    tag_271:\n        /* \"#utility.yul\":12456:12618   */\n      pop\n        /* \"#utility.yul\":12700:12704   */\n      0x20\n        /* \"#utility.yul\":12693:12698   */\n      dup4\n        /* \"#utility.yul\":12689:12705   */\n      add\n        /* \"#utility.yul\":12683:12706   */\n      mload\n        /* \"#utility.yul\":12753:12756   */\n      dup5\n        /* \"#utility.yul\":12747:12751   */\n      dup3\n        /* \"#utility.yul\":12743:12757   */\n      sub\n        /* \"#utility.yul\":12736:12740   */\n      0x20\n        /* \"#utility.yul\":12731:12734   */\n      dup7\n        /* \"#utility.yul\":12727:12741   */\n      add\n        /* \"#utility.yul\":12720:12758   */\n      mstore\n        /* \"#utility.yul\":12779:12852   */\n      tag_272\n        /* \"#utility.yul\":12847:12851   */\n      dup3\n        /* \"#utility.yul\":12833:12845   */\n      dup3\n        /* \"#utility.yul\":12779:12852   */\n      tag_118\n      jump\t// in\n    tag_272:\n        /* \"#utility.yul\":12771:12852   */\n      swap2\n      pop\n        /* \"#utility.yul\":12628:12863   */\n      pop\n        /* \"#utility.yul\":12944:12948   */\n      0x40\n        /* \"#utility.yul\":12937:12942   */\n      dup4\n        /* \"#utility.yul\":12933:12949   */\n      add\n        /* \"#utility.yul\":12927:12950   */\n      mload\n        /* \"#utility.yul\":12963:13022   */\n      tag_273\n        /* \"#utility.yul\":13016:13020   */\n      0x40\n        /* \"#utility.yul\":13011:13014   */\n      dup7\n        /* \"#utility.yul\":13007:13021   */\n      add\n        /* \"#utility.yul\":12993:13005   */\n      dup3\n        /* \"#utility.yul\":12963:13022   */\n      tag_121\n      jump\t// in\n    tag_273:\n        /* \"#utility.yul\":12873:13032   */\n      pop\n        /* \"#utility.yul\":13116:13120   */\n      0x60\n        /* \"#utility.yul\":13109:13114   */\n      dup4\n        /* \"#utility.yul\":13105:13121   */\n      add\n        /* \"#utility.yul\":13099:13122   */\n      mload\n        /* \"#utility.yul\":13135:13198   */\n      tag_274\n        /* \"#utility.yul\":13192:13196   */\n      0x60\n        /* \"#utility.yul\":13187:13190   */\n      dup7\n        /* \"#utility.yul\":13183:13197   */\n      add\n        /* \"#utility.yul\":13169:13181   */\n      dup3\n        /* \"#utility.yul\":13135:13198   */\n      tag_114\n      jump\t// in\n    tag_274:\n        /* \"#utility.yul\":13042:13208   */\n      pop\n        /* \"#utility.yul\":13298:13302   */\n      0x80\n        /* \"#utility.yul\":13291:13296   */\n      dup4\n        /* \"#utility.yul\":13287:13303   */\n      add\n        /* \"#utility.yul\":13281:13304   */\n      mload\n        /* \"#utility.yul\":13351:13354   */\n      dup5\n        /* \"#utility.yul\":13345:13349   */\n      dup3\n        /* \"#utility.yul\":13341:13355   */\n      sub\n        /* \"#utility.yul\":13334:13338   */\n      0x80\n        /* \"#utility.yul\":13329:13332   */\n      dup7\n        /* \"#utility.yul\":13325:13339   */\n      add\n        /* \"#utility.yul\":13318:13356   */\n      mstore\n        /* \"#utility.yul\":13377:13480   */\n      tag_275\n        /* \"#utility.yul\":13475:13479   */\n      dup3\n        /* \"#utility.yul\":13461:13473   */\n      dup3\n        /* \"#utility.yul\":13377:13480   */\n      tag_127\n      jump\t// in\n    tag_275:\n        /* \"#utility.yul\":13369:13480   */\n      swap2\n      pop\n        /* \"#utility.yul\":13218:13491   */\n      pop\n        /* \"#utility.yul\":13581:13585   */\n      0xa0\n        /* \"#utility.yul\":13574:13579   */\n      dup4\n        /* \"#utility.yul\":13570:13586   */\n      add\n        /* \"#utility.yul\":13564:13587   */\n      mload\n        /* \"#utility.yul\":13634:13637   */\n      dup5\n        /* \"#utility.yul\":13628:13632   */\n      dup3\n        /* \"#utility.yul\":13624:13638   */\n      sub\n        /* \"#utility.yul\":13617:13621   */\n      0xa0\n        /* \"#utility.yul\":13612:13615   */\n      dup7\n        /* \"#utility.yul\":13608:13622   */\n      add\n        /* \"#utility.yul\":13601:13639   */\n      mstore\n        /* \"#utility.yul\":13660:13763   */\n      tag_276\n        /* \"#utility.yul\":13758:13762   */\n      dup3\n        /* \"#utility.yul\":13744:13756   */\n      dup3\n        /* \"#utility.yul\":13660:13763   */\n      tag_127\n      jump\t// in\n    tag_276:\n        /* \"#utility.yul\":13652:13763   */\n      swap2\n      pop\n        /* \"#utility.yul\":13501:13774   */\n      pop\n        /* \"#utility.yul\":13791:13795   */\n      dup1\n        /* \"#utility.yul\":13784:13795   */\n      swap2\n      pop\n        /* \"#utility.yul\":12410:13801   */\n      pop\n        /* \"#utility.yul\":12286:13801   */\n      swap3\n      swap2\n      pop\n      pop\n      jump\t// out\n        /* \"#utility.yul\":13807:14180   */\n    tag_43:\n        /* \"#utility.yul\":13950:13954   */\n      0x00\n        /* \"#utility.yul\":13988:13990   */\n      0x20\n        /* \"#utility.yul\":13977:13986   */\n      dup3\n        /* \"#utility.yul\":13973:13991   */\n      add\n        /* \"#utility.yul\":13965:13991   */\n      swap1\n      pop\n        /* \"#utility.yul\":14037:14046   */\n      dup2\n        /* \"#utility.yul\":14031:14035   */\n      dup2\n        /* \"#utility.yul\":14027:14047   */\n      sub\n        /* \"#utility.yul\":14023:14024   */\n      0x00\n        /* \"#utility.yul\":14012:14021   */\n      dup4\n        /* \"#utility.yul\":14008:14025   */\n      add\n        /* \"#utility.yul\":14001:14048   */\n      mstore\n        /* \"#utility.yul\":14065:14173   */\n      tag_278\n        /* \"#utility.yul\":14168:14172   */\n      dup2\n        /* \"#utility.yul\":14159:14165   */\n      dup5\n        /* \"#utility.yul\":14065:14173   */\n      tag_128\n      jump\t// in\n    tag_278:\n        /* \"#utility.yul\":14057:14173   */\n      swap1\n      pop\n        /* \"#utility.yul\":13807:14180   */\n      swap3\n      swap2\n      pop\n      pop\n      jump\t// out\n        /* \"#utility.yul\":14186:14312   */\n    tag_129:\n        /* \"#utility.yul\":14223:14230   */\n      0x00\n        /* \"#utility.yul\":14263:14305   */\n      0xffffffffffffffffffffffffffffffffffffffff\n        /* \"#utility.yul\":14256:14261   */\n      dup3\n        /* \"#utility.yul\":14252:14306   */\n      and\n        /* \"#utility.yul\":14241:14306   */\n      swap1\n      pop\n        /* \"#utility.yul\":14186:14312   */\n      swap2\n      swap1\n      pop\n      jump\t// out\n        /* \"#utility.yul\":14318:14414   */\n    tag_130:\n        /* \"#utility.yul\":14355:14362   */\n      0x00\n        /* \"#utility.yul\":14384:14408   */\n      tag_281\n        /* \"#utility.yul\":14402:14407   */\n      dup3\n        /* \"#utility.yul\":14384:14408   */\n      tag_129\n      jump\t// in\n    tag_281:\n        /* \"#utility.yul\":14373:14408   */\n      swap1\n      pop\n        /* \"#utility.yul\":14318:14414   */\n      swap2\n      swap1\n      pop\n      jump\t// out\n        /* \"#utility.yul\":14420:14538   */\n    tag_131:\n        /* \"#utility.yul\":14507:14531   */\n      tag_283\n        /* \"#utility.yul\":14525:14530   */\n      dup2\n        /* \"#utility.yul\":14507:14531   */\n      tag_130\n      jump\t// in\n    tag_283:\n        /* \"#utility.yul\":14502:14505   */\n      dup3\n        /* \"#utility.yul\":14495:14532   */\n      mstore\n        /* \"#utility.yul\":14420:14538   */\n      pop\n      pop\n      jump\t// out\n        /* \"#utility.yul\":14544:14766   */\n    tag_47:\n        /* \"#utility.yul\":14637:14641   */\n      0x00\n        /* \"#utility.yul\":14675:14677   */\n      0x20\n        /* \"#utility.yul\":14664:14673   */\n      dup3\n        /* \"#utility.yul\":14660:14678   */\n      add\n        /* \"#utility.yul\":14652:14678   */\n      swap1\n      pop\n        /* \"#utility.yul\":14688:14759   */\n      tag_285\n        /* \"#utility.yul\":14756:14757   */\n      0x00\n        /* \"#utility.yul\":14745:14754   */\n      dup4\n        /* \"#utility.yul\":14741:14758   */\n      add\n        /* \"#utility.yul\":14732:14738   */\n      dup5\n        /* \"#utility.yul\":14688:14759   */\n      tag_131\n      jump\t// in\n    tag_285:\n        /* \"#utility.yul\":14544:14766   */\n      swap3\n      swap2\n      pop\n      pop\n      jump\t// out\n        /* \"#utility.yul\":14772:14952   */\n    tag_132:\n        /* \"#utility.yul\":14820:14897   */\n      0x4e487b7100000000000000000000000000000000000000000000000000000000\n        /* \"#utility.yul\":14817:14818   */\n      0x00\n        /* \"#utility.yul\":14810:14898   */\n      mstore\n        /* \"#utility.yul\":14917:14921   */\n      0x22\n        /* \"#utility.yul\":14914:14915   */\n      0x04\n        /* \"#utility.yul\":14907:14922   */\n      mstore\n        /* \"#utility.yul\":14941:14945   */\n      0x24\n        /* \"#utility.yul\":14938:14939   */\n      0x00\n        /* \"#utility.yul\":14931:14946   */\n      revert\n        /* \"#utility.yul\":14958:15278   */\n    tag_57:\n        /* \"#utility.yul\":15002:15008   */\n      0x00\n        /* \"#utility.yul\":15039:15040   */\n      0x02\n        /* \"#utility.yul\":15033:15037   */\n      dup3\n        /* \"#utility.yul\":15029:15041   */\n      div\n        /* \"#utility.yul\":15019:15041   */\n      swap1\n      pop\n        /* \"#utility.yul\":15086:15087   */\n      0x01\n        /* \"#utility.yul\":15080:15084   */\n      dup3\n        /* \"#utility.yul\":15076:15088   */\n      and\n        /* \"#utility.yul\":15107:15125   */\n      dup1\n        /* \"#utility.yul\":15097:15178   */\n      tag_288\n      jumpi\n        /* \"#utility.yul\":15163:15167   */\n      0x7f\n        /* \"#utility.yul\":15155:15161   */\n      dup3\n        /* \"#utility.yul\":15151:15168   */\n      and\n        /* \"#utility.yul\":15141:15168   */\n      swap2\n      pop\n        /* \"#utility.yul\":15097:15178   */\n    tag_288:\n        /* \"#utility.yul\":15225:15227   */\n      0x20\n        /* \"#utility.yul\":15217:15223   */\n      dup3\n        /* \"#utility.yul\":15214:15228   */\n      lt\n        /* \"#utility.yul\":15194:15212   */\n      dup2\n        /* \"#utility.yul\":15191:15229   */\n      sub\n        /* \"#utility.yul\":15188:15272   */\n      tag_289\n      jumpi\n        /* \"#utility.yul\":15244:15262   */\n      tag_290\n      tag_132\n      jump\t// in\n    tag_290:\n        /* \"#utility.yul\":15188:15272   */\n    tag_289:\n        /* \"#utility.yul\":15009:15278   */\n      pop\n        /* \"#utility.yul\":14958:15278   */\n      swap2\n      swap1\n      pop\n      jump\t// out\n        /* \"#utility.yul\":15284:15425   */\n    tag_133:\n        /* \"#utility.yul\":15333:15337   */\n      0x00\n        /* \"#utility.yul\":15356:15359   */\n      dup2\n        /* \"#utility.yul\":15348:15359   */\n      swap1\n      pop\n        /* \"#utility.yul\":15379:15382   */\n      dup2\n        /* \"#utility.yul\":15376:15377   */\n      0x00\n        /* \"#utility.yul\":15369:15383   */\n      mstore\n        /* \"#utility.yul\":15413:15417   */\n      0x20\n        /* \"#utility.yul\":15410:15411   */\n      0x00\n        /* \"#utility.yul\":15400:15418   */\n      keccak256\n        /* \"#utility.yul\":15392:15418   */\n      swap1\n      pop\n        /* \"#utility.yul\":15284:15425   */\n      swap2\n      swap1\n      pop\n      jump\t// out\n        /* \"#utility.yul\":15431:15524   */\n    tag_134:\n        /* \"#utility.yul\":15468:15474   */\n      0x00\n        /* \"#utility.yul\":15515:15517   */\n      0x20\n        /* \"#utility.yul\":15510:15512   */\n      0x1f\n        /* \"#utility.yul\":15503:15508   */\n      dup4\n        /* \"#utility.yul\":15499:15513   */\n      add\n        /* \"#utility.yul\":15495:15518   */\n      div\n        /* \"#utility.yul\":15485:15518   */\n      swap1\n      pop\n        /* \"#utility.yul\":15431:15524   */\n      swap2\n      swap1\n      pop\n      jump\t// out\n        /* \"#utility.yul\":15530:15637   */\n    tag_135:\n        /* \"#utility.yul\":15574:15582   */\n      0x00\n        /* \"#utility.yul\":15624:15629   */\n      dup3\n        /* \"#utility.yul\":15618:15622   */\n      dup3\n        /* \"#utility.yul\":15614:15630   */\n      shl\n        /* \"#utility.yul\":15593:15630   */\n      swap1\n      pop\n        /* \"#utility.yul\":15530:15637   */\n      swap3\n      swap2\n      pop\n      pop\n      jump\t// out\n        /* \"#utility.yul\":15643:16036   */\n    tag_136:\n        /* \"#utility.yul\":15712:15718   */\n      0x00\n        /* \"#utility.yul\":15762:15763   */\n      0x08\n        /* \"#utility.yul\":15750:15760   */\n      dup4\n        /* \"#utility.yul\":15746:15764   */\n      mul\n        /* \"#utility.yul\":15785:15882   */\n      tag_295\n        /* \"#utility.yul\":15815:15881   */\n      0xffffffffffffffffffffffffffffffffffffffffffffffffffffffffffffffff\n        /* \"#utility.yul\":15804:15813   */\n      dup3\n        /* \"#utility.yul\":15785:15882   */\n      tag_135\n      jump\t// in\n    tag_295:\n        /* \"#utility.yul\":15903:15942   */\n      tag_296\n        /* \"#utility.yul\":15933:15941   */\n      dup7\n        /* \"#utility.yul\":15922:15931   */\n      dup4\n        /* \"#utility.yul\":15903:15942   */\n      tag_135\n      jump\t// in\n    tag_296:\n        /* \"#utility.yul\":15891:15942   */\n      swap6\n      pop\n        /* \"#utility.yul\":15975:15979   */\n      dup1\n        /* \"#utility.yul\":15971:15980   */\n      not\n        /* \"#utility.yul\":15964:15969   */\n      dup5\n        /* \"#utility.yul\":15960:15981   */\n      and\n        /* \"#utility.yul\":15951:15981   */\n      swap4\n      pop\n        /* \"#utility.yul\":16024:16028   */\n      dup1\n        /* \"#utility.yul\":16014:16022   */\n      dup7\n        /* \"#utility.yul\":16010:16029   */\n      and\n        /* \"#utility.yul\":16003:16008   */\n      dup5\n        /* \"#utility.yul\":16000:16030   */\n      or\n        /* \"#utility.yul\":15990:16030   */\n      swap3\n      pop\n        /* \"#utility.yul\":15719:16036   */\n      pop\n      pop\n        /* \"#utility.yul\":15643:16036   */\n      swap4\n      swap3\n      pop\n      pop\n      pop\n      jump\t// out\n        /* \"#utility.yul\":16042:16102   */\n    tag_137:\n        /* \"#utility.yul\":16070:16073   */\n      0x00\n        /* \"#utility.yul\":16091:16096   */\n      dup2\n        /* \"#utility.yul\":16084:16096   */\n      swap1\n      pop\n        /* \"#utility.yul\":16042:16102   */\n      swap2\n      swap1\n      pop\n      jump\t// out\n        /* \"#utility.yul\":16108:16250   */\n    tag_138:\n        /* \"#utility.yul\":16158:16167   */\n      0x00\n        /* \"#utility.yul\":16191:16244   */\n      tag_299\n        /* \"#utility.yul\":16209:16243   */\n      tag_300\n        /* \"#utility.yul\":16218:16242   */\n      tag_301\n        /* \"#utility.yul\":16236:16241   */\n      dup5\n        /* \"#utility.yul\":16218:16242   */\n      tag_101\n      jump\t// in\n    tag_301:\n        /* \"#utility.yul\":16209:16243   */\n      tag_137\n      jump\t// in\n    tag_300:\n        /* \"#utility.yul\":16191:16244   */\n      tag_101\n      jump\t// in\n    tag_299:\n        /* \"#utility.yul\":16178:16244   */\n      swap1\n      pop\n        /* \"#utility.yul\":16108:16250   */\n      swap2\n      swap1\n      pop\n      jump\t// out\n        /* \"#utility.yul\":16256:16331   */\n    tag_139:\n        /* \"#utility.yul\":16299:16302   */\n      0x00\n        /* \"#utility.yul\":16320:16325   */\n      dup2\n        /* \"#utility.yul\":16313:16325   */\n      swap1\n      pop\n        /* \"#utility.yul\":16256:16331   */\n      swap2\n      swap1\n      pop\n      jump\t// out\n        /* \"#utility.yul\":16337:16606   */\n    tag_140:\n        /* \"#utility.yul\":16447:16486   */\n      tag_304\n        /* \"#utility.yul\":16478:16485   */\n      dup4\n        /* \"#utility.yul\":16447:16486   */\n      tag_138\n      jump\t// in\n    tag_304:\n        /* \"#utility.yul\":16508:16599   */\n      tag_305\n        /* \"#utility.yul\":16557:16598   */\n      tag_306\n        /* \"#utility.yul\":16581:16597   */\n      dup3\n        /* \"#utility.yul\":16557:16598   */\n      tag_139\n      jump\t// in\n    tag_306:\n        /* \"#utility.yul\":16549:16555   */\n      dup5\n        /* \"#utility.yul\":16542:16546   */\n      dup5\n        /* \"#utility.yul\":16536:16547   */\n      sload\n        /* \"#utility.yul\":16508:16599   */\n      tag_136\n      jump\t// in\n    tag_305:\n        /* \"#utility.yul\":16502:16506   */\n      dup3\n        /* \"#utility.yul\":16495:16600   */\n      sstore\n        /* \"#utility.yul\":16413:16606   */\n      pop\n        /* \"#utility.yul\":16337:16606   */\n      pop\n      pop\n      pop\n      jump\t// out\n        /* \"#utility.yul\":16612:16685   */\n    tag_141:\n        /* \"#utility.yul\":16657:16660   */\n      0x00\n        /* \"#utility.yul\":16612:16685   */\n      swap1\n      jump\t// out\n        /* \"#utility.yul\":16691:16880   */\n    tag_142:\n        /* \"#utility.yul\":16768:16800   */\n      tag_309\n      tag_141\n      jump\t// in\n    tag_309:\n        /* \"#utility.yul\":16809:16874   */\n      tag_310\n        /* \"#utility.yul\":16867:16873   */\n      dup2\n        /* \"#utility.yul\":16859:16865   */\n      dup5\n        /* \"#utility.yul\":16853:16857   */\n      dup5\n        /* \"#utility.yul\":16809:16874   */\n      tag_140\n      jump\t// in\n    tag_310:\n        /* \"#utility.yul\":16744:16880   */\n      pop\n        /* \"#utility.yul\":16691:16880   */\n      pop\n      pop\n      jump\t// out\n        /* \"#utility.yul\":16886:17072   */\n    tag_143:\n        /* \"#utility.yul\":16946:17066   */\n    tag_312:\n        /* \"#utility.yul\":16963:16966   */\n      dup2\n        /* \"#utility.yul\":16956:16961   */\n      dup2\n        /* \"#utility.yul\":16953:16967   */\n      lt\n        /* \"#utility.yul\":16946:17066   */\n      iszero\n      tag_314\n      jumpi\n        /* \"#utility.yul\":17017:17056   */\n      tag_315\n        /* \"#utility.yul\":17054:17055   */\n      0x00\n        /* \"#utility.yul\":17047:17052   */\n      dup3\n        /* \"#utility.yul\":17017:17056   */\n      tag_142\n      jump\t// in\n    tag_315:\n        /* \"#utility.yul\":16990:16991   */\n      0x01\n        /* \"#utility.yul\":16983:16988   */\n      dup2\n        /* \"#utility.yul\":16979:16992   */\n      add\n        /* \"#utility.yul\":16970:16992   */\n      swap1\n      pop\n        /* \"#utility.yul\":16946:17066   */\n      jump(tag_312)\n    tag_314:\n        /* \"#utility.yul\":16886:17072   */\n      pop\n      pop\n      jump\t// out\n        /* \"#utility.yul\":17078:17621   */\n    tag_144:\n        /* \"#utility.yul\":17179:17181   */\n      0x1f\n        /* \"#utility.yul\":17174:17177   */\n      dup3\n        /* \"#utility.yul\":17171:17182   */\n      gt\n        /* \"#utility.yul\":17168:17614   */\n      iszero\n      tag_317\n      jumpi\n        /* \"#utility.yul\":17213:17251   */\n      tag_318\n        /* \"#utility.yul\":17245:17250   */\n      dup2\n        /* \"#utility.yul\":17213:17251   */\n      tag_133\n      jump\t// in\n    tag_318:\n        /* \"#utility.yul\":17297:17326   */\n      tag_319\n        /* \"#utility.yul\":17315:17325   */\n      dup5\n        /* \"#utility.yul\":17297:17326   */\n      tag_134\n      jump\t// in\n    tag_319:\n        /* \"#utility.yul\":17287:17295   */\n      dup2\n        /* \"#utility.yul\":17283:17327   */\n      add\n        /* \"#utility.yul\":17480:17482   */\n      0x20\n        /* \"#utility.yul\":17468:17478   */\n      dup6\n        /* \"#utility.yul\":17465:17483   */\n      lt\n        /* \"#utility.yul\":17462:17511   */\n      iszero\n      tag_320\n      jumpi\n        /* \"#utility.yul\":17501:17509   */\n      dup2\n        /* \"#utility.yul\":17486:17509   */\n      swap1\n      pop\n        /* \"#utility.yul\":17462:17511   */\n    tag_320:\n        /* \"#utility.yul\":17524:17604   */\n      tag_321\n        /* \"#utility.yul\":17580:17602   */\n      tag_322\n        /* \"#utility.yul\":17598:17601   */\n      dup6\n        /* \"#utility.yul\":17580:17602   */\n      tag_134\n      jump\t// in\n    tag_322:\n        /* \"#utility.yul\":17570:17578   */\n      dup4\n        /* \"#utility.yul\":17566:17603   */\n      add\n        /* \"#utility.yul\":17553:17564   */\n      dup3\n        /* \"#utility.yul\":17524:17604   */\n      tag_143\n      jump\t// in\n    tag_321:\n        /* \"#utility.yul\":17183:17614   */\n      pop\n      pop\n        /* \"#utility.yul\":17168:17614   */\n    tag_317:\n        /* \"#utility.yul\":17078:17621   */\n      pop\n      pop\n      pop\n      jump\t// out\n        /* \"#utility.yul\":17627:17744   */\n    tag_145:\n        /* \"#utility.yul\":17681:17689   */\n      0x00\n        /* \"#utility.yul\":17731:17736   */\n      dup3\n        /* \"#utility.yul\":17725:17729   */\n      dup3\n        /* \"#utility.yul\":17721:17737   */\n      shr\n        /* \"#utility.yul\":17700:17737   */\n      swap1\n      pop\n        /* \"#utility.yul\":17627:17744   */\n      swap3\n      swap2\n      pop\n      pop\n      jump\t// out\n        /* \"#utility.yul\":17750:17919   */\n    tag_146:\n        /* \"#utility.yul\":17794:17800   */\n      0x00\n        /* \"#utility.yul\":17827:17878   */\n      tag_325\n        /* \"#utility.yul\":17875:17876   */\n      0x00\n        /* \"#utility.yul\":17871:17877   */\n      not\n        /* \"#utility.yul\":17863:17868   */\n      dup5\n        /* \"#utility.yul\":17860:17861   */\n      0x08\n        /* \"#utility.yul\":17856:17869   */\n      mul\n        /* \"#utility.yul\":17827:17878   */\n      tag_145\n      jump\t// in\n    tag_325:\n        /* \"#utility.yul\":17823:17879   */\n      not\n        /* \"#utility.yul\":17908:17912   */\n      dup1\n        /* \"#utility.yul\":17902:17906   */\n      dup4\n        /* \"#utility.yul\":17898:17913   */\n      and\n        /* \"#utility.yul\":17888:17913   */\n      swap2\n      pop\n        /* \"#utility.yul\":17801:17919   */\n      pop\n        /* \"#utility.yul\":17750:17919   */\n      swap3\n      swap2\n      pop\n      pop\n      jump\t// out\n        /* \"#utility.yul\":17924:18219   */\n    tag_147:\n        /* \"#utility.yul\":18000:18004   */\n      0x00\n        /* \"#utility.yul\":18146:18175   */\n      tag_327\n        /* \"#utility.yul\":18171:18174   */\n      dup4\n        /* \"#utility.yul\":18165:18169   */\n      dup4\n        /* \"#utility.yul\":18146:18175   */\n      tag_146\n      jump\t// in\n    tag_327:\n        /* \"#utility.yul\":18138:18175   */\n      swap2\n      pop\n        /* \"#utility.yul\":18208:18211   */\n      dup3\n        /* \"#utility.yul\":18205:18206   */\n      0x02\n        /* \"#utility.yul\":18201:18212   */\n      mul\n        /* \"#utility.yul\":18195:18199   */\n      dup3\n        /* \"#utility.yul\":18192:18213   */\n      or\n        /* \"#utility.yul\":18184:18213   */\n      swap1\n      pop\n        /* \"#utility.yul\":17924:18219   */\n      swap3\n      swap2\n      pop\n      pop\n      jump\t// out\n        /* \"#utility.yul\":18224:19619   */\n    tag_51:\n        /* \"#utility.yul\":18341:18378   */\n      tag_329\n        /* \"#utility.yul\":18374:18377   */\n      dup3\n        /* \"#utility.yul\":18341:18378   */\n      tag_115\n      jump\t// in\n    tag_329:\n        /* \"#utility.yul\":18443:18461   */\n      0xffffffffffffffff\n        /* \"#utility.yul\":18435:18441   */\n      dup2\n        /* \"#utility.yul\":18432:18462   */\n      gt\n        /* \"#utility.yul\":18429:18485   */\n      iszero\n      tag_330\n      jumpi\n        /* \"#utility.yul\":18465:18483   */\n      tag_331\n      tag_107\n      jump\t// in\n    tag_331:\n        /* \"#utility.yul\":18429:18485   */\n    tag_330:\n        /* \"#utility.yul\":18509:18547   */\n      tag_332\n        /* \"#utility.yul\":18541:18545   */\n      dup3\n        /* \"#utility.yul\":18535:18546   */\n      sload\n        /* \"#utility.yul\":18509:18547   */\n      tag_57\n      jump\t// in\n    tag_332:\n        /* \"#utility.yul\":18594:18661   */\n      tag_333\n        /* \"#utility.yul\":18654:18660   */\n      dup3\n        /* \"#utility.yul\":18646:18652   */\n      dup3\n        /* \"#utility.yul\":18640:18644   */\n      dup6\n        /* \"#utility.yul\":18594:18661   */\n      tag_144\n      jump\t// in\n    tag_333:\n        /* \"#utility.yul\":18688:18689   */\n      0x00\n        /* \"#utility.yul\":18712:18716   */\n      0x20\n        /* \"#utility.yul\":18699:18716   */\n      swap1\n      pop\n        /* \"#utility.yul\":18744:18746   */\n      0x1f\n        /* \"#utility.yul\":18736:18742   */\n      dup4\n        /* \"#utility.yul\":18733:18747   */\n      gt\n        /* \"#utility.yul\":18761:18762   */\n      0x01\n        /* \"#utility.yul\":18756:19374   */\n      dup2\n      eq\n      tag_335\n      jumpi\n        /* \"#utility.yul\":19418:19419   */\n      0x00\n        /* \"#utility.yul\":19435:19441   */\n      dup5\n        /* \"#utility.yul\":19432:19509   */\n      iszero\n      tag_336\n      jumpi\n        /* \"#utility.yul\":19484:19493   */\n      dup3\n        /* \"#utility.yul\":19479:19482   */\n      dup8\n        /* \"#utility.yul\":19475:19494   */\n      add\n        /* \"#utility.yul\":19469:19495   */\n      mload\n        /* \"#utility.yul\":19460:19495   */\n      swap1\n      pop\n        /* \"#utility.yul\":19432:19509   */\n    tag_336:\n        /* \"#utility.yul\":19535:19602   */\n      tag_337\n        /* \"#utility.yul\":19595:19601   */\n      dup6\n        /* \"#utility.yul\":19588:19593   */\n      dup3\n        /* \"#utility.yul\":19535:19602   */\n      tag_147\n      jump\t// in\n    tag_337:\n        /* \"#utility.yul\":19529:19533   */\n      dup7\n        /* \"#utility.yul\":19522:19603   */\n      sstore\n        /* \"#utility.yul\":19391:19613   */\n      pop\n        /* \"#utility.yul\":18726:19613   */\n      jump(tag_334)\n        /* \"#utility.yul\":18756:19374   */\n    tag_335:\n        /* \"#utility.yul\":18808:18812   */\n      0x1f\n        /* \"#utility.yul\":18804:18813   */\n      not\n        /* \"#utility.yul\":18796:18802   */\n      dup5\n        /* \"#utility.yul\":18792:18814   */\n      and\n        /* \"#utility.yul\":18842:18879   */\n      tag_338\n        /* \"#utility.yul\":18874:18878   */\n      dup7\n        /* \"#utility.yul\":18842:18879   */\n      tag_133\n      jump\t// in\n    tag_338:\n        /* \"#utility.yul\":18901:18902   */\n      0x00\n        /* \"#utility.yul\":18915:19123   */\n    tag_339:\n        /* \"#utility.yul\":18929:18936   */\n      dup3\n        /* \"#utility.yul\":18926:18927   */\n      dup2\n        /* \"#utility.yul\":18923:18937   */\n      lt\n        /* \"#utility.yul\":18915:19123   */\n      iszero\n      tag_341\n      jumpi\n        /* \"#utility.yul\":19008:19017   */\n      dup5\n        /* \"#utility.yul\":19003:19006   */\n      dup10\n        /* \"#utility.yul\":18999:19018   */\n      add\n        /* \"#utility.yul\":18993:19019   */\n      mload\n        /* \"#utility.yul\":18985:18991   */\n      dup3\n        /* \"#utility.yul\":18978:19020   */\n      sstore\n        /* \"#utility.yul\":19059:19060   */\n      0x01\n        /* \"#utility.yul\":19051:19057   */\n      dup3\n        /* \"#utility.yul\":19047:19061   */\n      add\n        /* \"#utility.yul\":19037:19061   */\n      swap2\n      pop\n        /* \"#utility.yul\":19106:19108   */\n      0x20\n        /* \"#utility.yul\":19095:19104   */\n      dup6\n        /* \"#utility.yul\":19091:19109   */\n      add\n        /* \"#utility.yul\":19078:19109   */\n      swap5\n      pop\n        /* \"#utility.yul\":18952:18956   */\n      0x20\n        /* \"#utility.yul\":18949:18950   */\n      dup2\n        /* \"#utility.yul\":18945:18957   */\n      add\n        /* \"#utility.yul\":18940:18957   */\n      swap1\n      pop\n        /* \"#utility.yul\":18915:19123   */\n      jump(tag_339)\n    tag_341:\n        /* \"#utility.yul\":19151:19157   */\n      dup7\n        /* \"#utility.yul\":19142:19149   */\n      dup4\n        /* \"#utility.yul\":19139:19158   */\n      lt\n        /* \"#utility.yul\":19136:19315   */\n      iszero\n      tag_342\n      jumpi\n        /* \"#utility.yul\":19209:19218   */\n      dup5\n        /* \"#utility.yul\":19204:19207   */\n      dup10\n        /* \"#utility.yul\":19200:19219   */\n      add\n        /* \"#utility.yul\":19194:19220   */\n      mload\n        /* \"#utility.yul\":19252:19300   */\n      tag_343\n        /* \"#utility.yul\":19294:19298   */\n      0x1f\n        /* \"#utility.yul\":19286:19292   */\n      dup10\n        /* \"#utility.yul\":19282:19299   */\n      and\n        /* \"#utility.yul\":19271:19280   */\n      dup3\n        /* \"#utility.yul\":19252:19300   */\n      tag_146\n      jump\t// in\n    tag_343:\n        /* \"#utility.yul\":19244:19250   */\n      dup4\n        /* \"#utility.yul\":19237:19301   */\n      sstore\n        /* \"#utility.yul\":19159:19315   */\n      pop\n        /* \"#utility.yul\":19136:19315   */\n    tag_342:\n        /* \"#utility.yul\":19361:19362   */\n      0x01\n        /* \"#utility.yul\":19357:19358   */\n      0x02\n        /* \"#utility.yul\":19349:19355   */\n      dup9\n        /* \"#utility.yul\":19345:19359   */\n      mul\n        /* \"#utility.yul\":19341:19363   */\n      add\n        /* \"#utility.yul\":19335:19339   */\n      dup9\n        /* \"#utility.yul\":19328:19364   */\n      sstore\n        /* \"#utility.yul\":18763:19374   */\n      pop\n      pop\n      pop\n        /* \"#utility.yul\":18726:19613   */\n    tag_334:\n      pop\n        /* \"#utility.yul\":18316:19619   */\n      pop\n      pop\n      pop\n        /* \"#utility.yul\":18224:19619   */\n      pop\n      pop\n      jump\t// out\n\n    auxdata: 0xa2646970667358221220659a8b6b5609887b4e44d9e5f017f0a1027cf04c121558c7f53ea0488deefb5e64736f6c63430008120033\n}\n",
				"bytecode": {
					"linkReferences": {},
					"object": "608060405234801561001057600080fd5b50336000806101000a81548173ffffffffffffffffffffffffffffffffffffffff021916908373ffffffffffffffffffffffffffffffffffffffff160217905550611341806100606000396000f3fe608060405234801561001057600080fd5b50600436106100885760003560e01c80637dc19f671161005b5780637dc19f6714610111578063a31569f814610141578063c2e0d71d1461015d578063f851a4401461018d57610088565b8063466829471461008d5780634c06810a146100a95780635b590a89146100c557806362e2742b146100f5575b600080fd5b6100a760048036038101906100a2919061098a565b6101ab565b005b6100c360048036038101906100be9190610b10565b6101d0565b005b6100df60048036038101906100da9190610b9b565b61024d565b6040516100ec9190610cb9565b60405180910390f35b61010f600480360381019061010a9190610cdb565b610330565b005b61012b60048036038101906101269190610b9b565b610432565b6040516101389190610db5565b60405180910390f35b61015b60048036038101906101569190610dd7565b610593565b005b61017760048036038101906101729190610b9b565b6106bb565b6040516101849190610faf565b60405180910390f35b610195610861565b6040516101a29190611012565b60405180910390f35b80600260008460ff1660ff168152602001908152602001600020600301819055505050565b8260ff16600360008560ff1660ff1681526020019081526020016000206001018190555081600360008560ff1660ff168152602001908152602001600020600001908161021d9190611239565b5080600360008560ff1660ff16815260200190815260200160002060020190816102479190611239565b50505050565b610255610885565b600160008360ff1660ff1681526020019081526020016000206040518060800160405290816000820154815260200160018201548152602001600282015481526020016003820180546102a79061105c565b80601f01602080910402602001604051908101604052809291908181526020018280546102d39061105c565b80156103205780601f106102f557610100808354040283529160200191610320565b820191906000526020600020905b81548152906001019060200180831161030357829003601f168201915b5050505050815250509050919050565b60008054906101000a900473ffffffffffffffffffffffffffffffffffffffff1673ffffffffffffffffffffffffffffffffffffffff163373ffffffffffffffffffffffffffffffffffffffff161461038857600080fd5b8360ff16600260008660ff1660ff1681526020019081526020016000206000018190555082600260008660ff1660ff16815260200190815260200160002060010190816103d59190611239565b5081600260008660ff1660ff16815260200190815260200160002060020160006101000a81548160ff021916908360ff16021790555080600260008660ff1660ff1681526020019081526020016000206003018190555050505050565b61043a6108ad565b600360008360ff1660ff16815260200190815260200160002060405180606001604052908160008201805461046e9061105c565b80601f016020809104026020016040519081016040528092919081815260200182805461049a9061105c565b80156104e75780601f106104bc576101008083540402835291602001916104e7565b820191906000526020600020905b8154815290600101906020018083116104ca57829003601f168201915b505050505081526020016001820154815260200160028201805461050a9061105c565b80601f01602080910402602001604051908101604052809291908181526020018280546105369061105c565b80156105835780601f1061055857610100808354040283529160200191610583565b820191906000526020600020905b81548152906001019060200180831161056657829003601f168201915b5050505050815250509050919050565b8360ff16600160008660ff1660ff168152602001908152602001600020600001819055508260ff16600160008660ff1660ff168152602001908152602001600020600101819055508160ff16600160008660ff1660ff1681526020019081526020016000206002018190555080600160008660ff1660ff16815260200190815260200160002060030190816106289190611239565b50600260008460ff1660ff16815260200190815260200160002060040182908060018154018082558091505060019003906000526020600020016000909160ff16909190915055600260008460ff1660ff16815260200190815260200160002060050184908060018154018082558091505060019003906000526020600020016000909160ff1690919091505550505050565b6106c36108ce565b600260008360ff1660ff1681526020019081526020016000206040518060c0016040529081600082015481526020016001820180546107019061105c565b80601f016020809104026020016040519081016040528092919081815260200182805461072d9061105c565b801561077a5780601f1061074f5761010080835404028352916020019161077a565b820191906000526020600020905b81548152906001019060200180831161075d57829003601f168201915b505050505081526020016002820160009054906101000a900460ff1660ff1660ff16815260200160038201548152602001600482018054806020026020016040519081016040528092919081815260200182805480156107f957602002820191906000526020600020905b8154815260200190600101908083116107e5575b505050505081526020016005820180548060200260200160405190810160405280929190818152602001828054801561085157602002820191906000526020600020905b81548152602001906001019080831161083d575b5050505050815250509050919050565b60008054906101000a900473ffffffffffffffffffffffffffffffffffffffff1681565b6040518060800160405280600081526020016000815260200160008152602001606081525090565b60405180606001604052806060815260200160008152602001606081525090565b6040518060c001604052806000815260200160608152602001600060ff1681526020016000815260200160608152602001606081525090565b6000604051905090565b600080fd5b600080fd5b600060ff82169050919050565b6109318161091b565b811461093c57600080fd5b50565b60008135905061094e81610928565b92915050565b6000819050919050565b61096781610954565b811461097257600080fd5b50565b6000813590506109848161095e565b92915050565b600080604083850312156109a1576109a0610911565b5b60006109af8582860161093f565b92505060206109c085828601610975565b9150509250929050565b600080fd5b600080fd5b6000601f19601f8301169050919050565b7f4e487b7100000000000000000000000000000000000000000000000000000000600052604160045260246000fd5b610a1d826109d4565b810181811067ffffffffffffffff82111715610a3c57610a3b6109e5565b5b80604052505050565b6000610a4f610907565b9050610a5b8282610a14565b919050565b600067ffffffffffffffff821115610a7b57610a7a6109e5565b5b610a84826109d4565b9050602081019050919050565b82818337600083830152505050565b6000610ab3610aae84610a60565b610a45565b905082815260208101848484011115610acf57610ace6109cf565b5b610ada848285610a91565b509392505050565b600082601f830112610af757610af66109ca565b5b8135610b07848260208601610aa0565b91505092915050565b600080600060608486031215610b2957610b28610911565b5b6000610b378682870161093f565b935050602084013567ffffffffffffffff811115610b5857610b57610916565b5b610b6486828701610ae2565b925050604084013567ffffffffffffffff811115610b8557610b84610916565b5b610b9186828701610ae2565b9150509250925092565b600060208284031215610bb157610bb0610911565b5b6000610bbf8482850161093f565b91505092915050565b610bd181610954565b82525050565b600081519050919050565b600082825260208201905092915050565b60005b83811015610c11578082015181840152602081019050610bf6565b60008484015250505050565b6000610c2882610bd7565b610c328185610be2565b9350610c42818560208601610bf3565b610c4b816109d4565b840191505092915050565b6000608083016000830151610c6e6000860182610bc8565b506020830151610c816020860182610bc8565b506040830151610c946040860182610bc8565b5060608301518482036060860152610cac8282610c1d565b9150508091505092915050565b60006020820190508181036000830152610cd38184610c56565b905092915050565b60008060008060808587031215610cf557610cf4610911565b5b6000610d038782880161093f565b945050602085013567ffffffffffffffff811115610d2457610d23610916565b5b610d3087828801610ae2565b9350506040610d418782880161093f565b9250506060610d5287828801610975565b91505092959194509250565b60006060830160008301518482036000860152610d7b8282610c1d565b9150506020830151610d906020860182610bc8565b5060408301518482036040860152610da88282610c1d565b9150508091505092915050565b60006020820190508181036000830152610dcf8184610d5e565b905092915050565b60008060008060808587031215610df157610df0610911565b5b6000610dff8782880161093f565b9450506020610e108782880161093f565b9350506040610e218782880161093f565b925050606085013567ffffffffffffffff811115610e4257610e41610916565b5b610e4e87828801610ae2565b91505092959194509250565b610e638161091b565b82525050565b600081519050919050565b600082825260208201905092915050565b6000819050602082019050919050565b6000610ea18383610bc8565b60208301905092915050565b6000602082019050919050565b6000610ec582610e69565b610ecf8185610e74565b9350610eda83610e85565b8060005b83811015610f0b578151610ef28882610e95565b9750610efd83610ead565b925050600181019050610ede565b5085935050505092915050565b600060c083016000830151610f306000860182610bc8565b5060208301518482036020860152610f488282610c1d565b9150506040830151610f5d6040860182610e5a565b506060830151610f706060860182610bc8565b5060808301518482036080860152610f888282610eba565b91505060a083015184820360a0860152610fa28282610eba565b9150508091505092915050565b60006020820190508181036000830152610fc98184610f18565b905092915050565b600073ffffffffffffffffffffffffffffffffffffffff82169050919050565b6000610ffc82610fd1565b9050919050565b61100c81610ff1565b82525050565b60006020820190506110276000830184611003565b92915050565b7f4e487b7100000000000000000000000000000000000000000000000000000000600052602260045260246000fd5b6000600282049050600182168061107457607f821691505b6020821081036110875761108661102d565b5b50919050565b60008190508160005260206000209050919050565b60006020601f8301049050919050565b600082821b905092915050565b6000600883026110ef7fffffffffffffffffffffffffffffffffffffffffffffffffffffffffffffffff826110b2565b6110f986836110b2565b95508019841693508086168417925050509392505050565b6000819050919050565b600061113661113161112c84610954565b611111565b610954565b9050919050565b6000819050919050565b6111508361111b565b61116461115c8261113d565b8484546110bf565b825550505050565b600090565b61117961116c565b611184818484611147565b505050565b5b818110156111a85761119d600082611171565b60018101905061118a565b5050565b601f8211156111ed576111be8161108d565b6111c7846110a2565b810160208510156111d6578190505b6111ea6111e2856110a2565b830182611189565b50505b505050565b600082821c905092915050565b6000611210600019846008026111f2565b1980831691505092915050565b600061122983836111ff565b9150826002028217905092915050565b61124282610bd7565b67ffffffffffffffff81111561125b5761125a6109e5565b5b611265825461105c565b6112708282856111ac565b600060209050601f8311600181146112a35760008415611291578287015190505b61129b858261121d565b865550611303565b601f1984166112b18661108d565b60005b828110156112d9578489015182556001820191506020850194506020810190506112b4565b868310156112f657848901516112f2601f8916826111ff565b8355505b6001600288020188555050505b50505050505056fea2646970667358221220659a8b6b5609887b4e44d9e5f017f0a1027cf04c121558c7f53ea0488deefb5e64736f6c63430008120033",
					"opcodes": "PUSH1 0x80 PUSH1 0x40 MSTORE CALLVALUE DUP1 ISZERO PUSH2 0x10 JUMPI PUSH1 0x0 DUP1 REVERT JUMPDEST POP CALLER PUSH1 0x0 DUP1 PUSH2 0x100 EXP DUP2 SLOAD DUP2 PUSH20 0xFFFFFFFFFFFFFFFFFFFFFFFFFFFFFFFFFFFFFFFF MUL NOT AND SWAP1 DUP4 PUSH20 0xFFFFFFFFFFFFFFFFFFFFFFFFFFFFFFFFFFFFFFFF AND MUL OR SWAP1 SSTORE POP PUSH2 0x1341 DUP1 PUSH2 0x60 PUSH1 0x0 CODECOPY PUSH1 0x0 RETURN INVALID PUSH1 0x80 PUSH1 0x40 MSTORE CALLVALUE DUP1 ISZERO PUSH2 0x10 JUMPI PUSH1 0x0 DUP1 REVERT JUMPDEST POP PUSH1 0x4 CALLDATASIZE LT PUSH2 0x88 JUMPI PUSH1 0x0 CALLDATALOAD PUSH1 0xE0 SHR DUP1 PUSH4 0x7DC19F67 GT PUSH2 0x5B JUMPI DUP1 PUSH4 0x7DC19F67 EQ PUSH2 0x111 JUMPI DUP1 PUSH4 0xA31569F8 EQ PUSH2 0x141 JUMPI DUP1 PUSH4 0xC2E0D71D EQ PUSH2 0x15D JUMPI DUP1 PUSH4 0xF851A440 EQ PUSH2 0x18D JUMPI PUSH2 0x88 JUMP JUMPDEST DUP1 PUSH4 0x46682947 EQ PUSH2 0x8D JUMPI DUP1 PUSH4 0x4C06810A EQ PUSH2 0xA9 JUMPI DUP1 PUSH4 0x5B590A89 EQ PUSH2 0xC5 JUMPI DUP1 PUSH4 0x62E2742B EQ PUSH2 0xF5 JUMPI JUMPDEST PUSH1 0x0 DUP1 REVERT JUMPDEST PUSH2 0xA7 PUSH1 0x4 DUP1 CALLDATASIZE SUB DUP2 ADD SWAP1 PUSH2 0xA2 SWAP2 SWAP1 PUSH2 0x98A JUMP JUMPDEST PUSH2 0x1AB JUMP JUMPDEST STOP JUMPDEST PUSH2 0xC3 PUSH1 0x4 DUP1 CALLDATASIZE SUB DUP2 ADD SWAP1 PUSH2 0xBE SWAP2 SWAP1 PUSH2 0xB10 JUMP JUMPDEST PUSH2 0x1D0 JUMP JUMPDEST STOP JUMPDEST PUSH2 0xDF PUSH1 0x4 DUP1 CALLDATASIZE SUB DUP2 ADD SWAP1 PUSH2 0xDA SWAP2 SWAP1 PUSH2 0xB9B JUMP JUMPDEST PUSH2 0x24D JUMP JUMPDEST PUSH1 0x40 MLOAD PUSH2 0xEC SWAP2 SWAP1 PUSH2 0xCB9 JUMP JUMPDEST PUSH1 0x40 MLOAD DUP1 SWAP2 SUB SWAP1 RETURN JUMPDEST PUSH2 0x10F PUSH1 0x4 DUP1 CALLDATASIZE SUB DUP2 ADD SWAP1 PUSH2 0x10A SWAP2 SWAP1 PUSH2 0xCDB JUMP JUMPDEST PUSH2 0x330 JUMP JUMPDEST STOP JUMPDEST PUSH2 0x12B PUSH1 0x4 DUP1 CALLDATASIZE SUB DUP2 ADD SWAP1 PUSH2 0x126 SWAP2 SWAP1 PUSH2 0xB9B JUMP JUMPDEST PUSH2 0x432 JUMP JUMPDEST PUSH1 0x40 MLOAD PUSH2 0x138 SWAP2 SWAP1 PUSH2 0xDB5 JUMP JUMPDEST PUSH1 0x40 MLOAD DUP1 SWAP2 SUB SWAP1 RETURN JUMPDEST PUSH2 0x15B PUSH1 0x4 DUP1 CALLDATASIZE SUB DUP2 ADD SWAP1 PUSH2 0x156 SWAP2 SWAP1 PUSH2 0xDD7 JUMP JUMPDEST PUSH2 0x593 JUMP JUMPDEST STOP JUMPDEST PUSH2 0x177 PUSH1 0x4 DUP1 CALLDATASIZE SUB DUP2 ADD SWAP1 PUSH2 0x172 SWAP2 SWAP1 PUSH2 0xB9B JUMP JUMPDEST PUSH2 0x6BB JUMP JUMPDEST PUSH1 0x40 MLOAD PUSH2 0x184 SWAP2 SWAP1 PUSH2 0xFAF JUMP JUMPDEST PUSH1 0x40 MLOAD DUP1 SWAP2 SUB SWAP1 RETURN JUMPDEST PUSH2 0x195 PUSH2 0x861 JUMP JUMPDEST PUSH1 0x40 MLOAD PUSH2 0x1A2 SWAP2 SWAP1 PUSH2 0x1012 JUMP JUMPDEST PUSH1 0x40 MLOAD DUP1 SWAP2 SUB SWAP1 RETURN JUMPDEST DUP1 PUSH1 0x2 PUSH1 0x0 DUP5 PUSH1 0xFF AND PUSH1 0xFF AND DUP2 MSTORE PUSH1 0x20 ADD SWAP1 DUP2 MSTORE PUSH1 0x20 ADD PUSH1 0x0 KECCAK256 PUSH1 0x3 ADD DUP2 SWAP1 SSTORE POP POP POP JUMP JUMPDEST DUP3 PUSH1 0xFF AND PUSH1 0x3 PUSH1 0x0 DUP6 PUSH1 0xFF AND PUSH1 0xFF AND DUP2 MSTORE PUSH1 0x20 ADD SWAP1 DUP2 MSTORE PUSH1 0x20 ADD PUSH1 0x0 KECCAK256 PUSH1 0x1 ADD DUP2 SWAP1 SSTORE POP DUP2 PUSH1 0x3 PUSH1 0x0 DUP6 PUSH1 0xFF AND PUSH1 0xFF AND DUP2 MSTORE PUSH1 0x20 ADD SWAP1 DUP2 MSTORE PUSH1 0x20 ADD PUSH1 0x0 KECCAK256 PUSH1 0x0 ADD SWAP1 DUP2 PUSH2 0x21D SWAP2 SWAP1 PUSH2 0x1239 JUMP JUMPDEST POP DUP1 PUSH1 0x3 PUSH1 0x0 DUP6 PUSH1 0xFF AND PUSH1 0xFF AND DUP2 MSTORE PUSH1 0x20 ADD SWAP1 DUP2 MSTORE PUSH1 0x20 ADD PUSH1 0x0 KECCAK256 PUSH1 0x2 ADD SWAP1 DUP2 PUSH2 0x247 SWAP2 SWAP1 PUSH2 0x1239 JUMP JUMPDEST POP POP POP POP JUMP JUMPDEST PUSH2 0x255 PUSH2 0x885 JUMP JUMPDEST PUSH1 0x1 PUSH1 0x0 DUP4 PUSH1 0xFF AND PUSH1 0xFF AND DUP2 MSTORE PUSH1 0x20 ADD SWAP1 DUP2 MSTORE PUSH1 0x20 ADD PUSH1 0x0 KECCAK256 PUSH1 0x40 MLOAD DUP1 PUSH1 0x80 ADD PUSH1 0x40 MSTORE SWAP1 DUP2 PUSH1 0x0 DUP3 ADD SLOAD DUP2 MSTORE PUSH1 0x20 ADD PUSH1 0x1 DUP3 ADD SLOAD DUP2 MSTORE PUSH1 0x20 ADD PUSH1 0x2 DUP3 ADD SLOAD DUP2 MSTORE PUSH1 0x20 ADD PUSH1 0x3 DUP3 ADD DUP1 SLOAD PUSH2 0x2A7 SWAP1 PUSH2 0x105C JUMP JUMPDEST DUP1 PUSH1 0x1F ADD PUSH1 0x20 DUP1 SWAP2 DIV MUL PUSH1 0x20 ADD PUSH1 0x40 MLOAD SWAP1 DUP2 ADD PUSH1 0x40 MSTORE DUP1 SWAP3 SWAP2 SWAP1 DUP2 DUP2 MSTORE PUSH1 0x20 ADD DUP3 DUP1 SLOAD PUSH2 0x2D3 SWAP1 PUSH2 0x105C JUMP JUMPDEST DUP1 ISZERO PUSH2 0x320 JUMPI DUP1 PUSH1 0x1F LT PUSH2 0x2F5 JUMPI PUSH2 0x100 DUP1 DUP4 SLOAD DIV MUL DUP4 MSTORE SWAP2 PUSH1 0x20 ADD SWAP2 PUSH2 0x320 JUMP JUMPDEST DUP3 ADD SWAP2 SWAP1 PUSH1 0x0 MSTORE PUSH1 0x20 PUSH1 0x0 KECCAK256 SWAP1 JUMPDEST DUP2 SLOAD DUP2 MSTORE SWAP1 PUSH1 0x1 ADD SWAP1 PUSH1 0x20 ADD DUP1 DUP4 GT PUSH2 0x303 JUMPI DUP3 SWAP1 SUB PUSH1 0x1F AND DUP3 ADD SWAP2 JUMPDEST POP POP POP POP POP DUP2 MSTORE POP POP SWAP1 POP SWAP2 SWAP1 POP JUMP JUMPDEST PUSH1 0x0 DUP1 SLOAD SWAP1 PUSH2 0x100 EXP SWAP1 DIV PUSH20 0xFFFFFFFFFFFFFFFFFFFFFFFFFFFFFFFFFFFFFFFF AND PUSH20 0xFFFFFFFFFFFFFFFFFFFFFFFFFFFFFFFFFFFFFFFF AND CALLER PUSH20 0xFFFFFFFFFFFFFFFFFFFFFFFFFFFFFFFFFFFFFFFF AND EQ PUSH2 0x388 JUMPI PUSH1 0x0 DUP1 REVERT JUMPDEST DUP4 PUSH1 0xFF AND PUSH1 0x2 PUSH1 0x0 DUP7 PUSH1 0xFF AND PUSH1 0xFF AND DUP2 MSTORE PUSH1 0x20 ADD SWAP1 DUP2 MSTORE PUSH1 0x20 ADD PUSH1 0x0 KECCAK256 PUSH1 0x0 ADD DUP2 SWAP1 SSTORE POP DUP3 PUSH1 0x2 PUSH1 0x0 DUP7 PUSH1 0xFF AND PUSH1 0xFF AND DUP2 MSTORE PUSH1 0x20 ADD SWAP1 DUP2 MSTORE PUSH1 0x20 ADD PUSH1 0x0 KECCAK256 PUSH1 0x1 ADD SWAP1 DUP2 PUSH2 0x3D5 SWAP2 SWAP1 PUSH2 0x1239 JUMP JUMPDEST POP DUP2 PUSH1 0x2 PUSH1 0x0 DUP7 PUSH1 0xFF AND PUSH1 0xFF AND DUP2 MSTORE PUSH1 0x20 ADD SWAP1 DUP2 MSTORE PUSH1 0x20 ADD PUSH1 0x0 KECCAK256 PUSH1 0x2 ADD PUSH1 0x0 PUSH2 0x100 EXP DUP2 SLOAD DUP2 PUSH1 0xFF MUL NOT AND SWAP1 DUP4 PUSH1 0xFF AND MUL OR SWAP1 SSTORE POP DUP1 PUSH1 0x2 PUSH1 0x0 DUP7 PUSH1 0xFF AND PUSH1 0xFF AND DUP2 MSTORE PUSH1 0x20 ADD SWAP1 DUP2 MSTORE PUSH1 0x20 ADD PUSH1 0x0 KECCAK256 PUSH1 0x3 ADD DUP2 SWAP1 SSTORE POP POP POP POP POP JUMP JUMPDEST PUSH2 0x43A PUSH2 0x8AD JUMP JUMPDEST PUSH1 0x3 PUSH1 0x0 DUP4 PUSH1 0xFF AND PUSH1 0xFF AND DUP2 MSTORE PUSH1 0x20 ADD SWAP1 DUP2 MSTORE PUSH1 0x20 ADD PUSH1 0x0 KECCAK256 PUSH1 0x40 MLOAD DUP1 PUSH1 0x60 ADD PUSH1 0x40 MSTORE SWAP1 DUP2 PUSH1 0x0 DUP3 ADD DUP1 SLOAD PUSH2 0x46E SWAP1 PUSH2 0x105C JUMP JUMPDEST DUP1 PUSH1 0x1F ADD PUSH1 0x20 DUP1 SWAP2 DIV MUL PUSH1 0x20 ADD PUSH1 0x40 MLOAD SWAP1 DUP2 ADD PUSH1 0x40 MSTORE DUP1 SWAP3 SWAP2 SWAP1 DUP2 DUP2 MSTORE PUSH1 0x20 ADD DUP3 DUP1 SLOAD PUSH2 0x49A SWAP1 PUSH2 0x105C JUMP JUMPDEST DUP1 ISZERO PUSH2 0x4E7 JUMPI DUP1 PUSH1 0x1F LT PUSH2 0x4BC JUMPI PUSH2 0x100 DUP1 DUP4 SLOAD DIV MUL DUP4 MSTORE SWAP2 PUSH1 0x20 ADD SWAP2 PUSH2 0x4E7 JUMP JUMPDEST DUP3 ADD SWAP2 SWAP1 PUSH1 0x0 MSTORE PUSH1 0x20 PUSH1 0x0 KECCAK256 SWAP1 JUMPDEST DUP2 SLOAD DUP2 MSTORE SWAP1 PUSH1 0x1 ADD SWAP1 PUSH1 0x20 ADD DUP1 DUP4 GT PUSH2 0x4CA JUMPI DUP3 SWAP1 SUB PUSH1 0x1F AND DUP3 ADD SWAP2 JUMPDEST POP POP POP POP POP DUP2 MSTORE PUSH1 0x20 ADD PUSH1 0x1 DUP3 ADD SLOAD DUP2 MSTORE PUSH1 0x20 ADD PUSH1 0x2 DUP3 ADD DUP1 SLOAD PUSH2 0x50A SWAP1 PUSH2 0x105C JUMP JUMPDEST DUP1 PUSH1 0x1F ADD PUSH1 0x20 DUP1 SWAP2 DIV MUL PUSH1 0x20 ADD PUSH1 0x40 MLOAD SWAP1 DUP2 ADD PUSH1 0x40 MSTORE DUP1 SWAP3 SWAP2 SWAP1 DUP2 DUP2 MSTORE PUSH1 0x20 ADD DUP3 DUP1 SLOAD PUSH2 0x536 SWAP1 PUSH2 0x105C JUMP JUMPDEST DUP1 ISZERO PUSH2 0x583 JUMPI DUP1 PUSH1 0x1F LT PUSH2 0x558 JUMPI PUSH2 0x100 DUP1 DUP4 SLOAD DIV MUL DUP4 MSTORE SWAP2 PUSH1 0x20 ADD SWAP2 PUSH2 0x583 JUMP JUMPDEST DUP3 ADD SWAP2 SWAP1 PUSH1 0x0 MSTORE PUSH1 0x20 PUSH1 0x0 KECCAK256 SWAP1 JUMPDEST DUP2 SLOAD DUP2 MSTORE SWAP1 PUSH1 0x1 ADD SWAP1 PUSH1 0x20 ADD DUP1 DUP4 GT PUSH2 0x566 JUMPI DUP3 SWAP1 SUB PUSH1 0x1F AND DUP3 ADD SWAP2 JUMPDEST POP POP POP POP POP DUP2 MSTORE POP POP SWAP1 POP SWAP2 SWAP1 POP JUMP JUMPDEST DUP4 PUSH1 0xFF AND PUSH1 0x1 PUSH1 0x0 DUP7 PUSH1 0xFF AND PUSH1 0xFF AND DUP2 MSTORE PUSH1 0x20 ADD SWAP1 DUP2 MSTORE PUSH1 0x20 ADD PUSH1 0x0 KECCAK256 PUSH1 0x0 ADD DUP2 SWAP1 SSTORE POP DUP3 PUSH1 0xFF AND PUSH1 0x1 PUSH1 0x0 DUP7 PUSH1 0xFF AND PUSH1 0xFF AND DUP2 MSTORE PUSH1 0x20 ADD SWAP1 DUP2 MSTORE PUSH1 0x20 ADD PUSH1 0x0 KECCAK256 PUSH1 0x1 ADD DUP2 SWAP1 SSTORE POP DUP2 PUSH1 0xFF AND PUSH1 0x1 PUSH1 0x0 DUP7 PUSH1 0xFF AND PUSH1 0xFF AND DUP2 MSTORE PUSH1 0x20 ADD SWAP1 DUP2 MSTORE PUSH1 0x20 ADD PUSH1 0x0 KECCAK256 PUSH1 0x2 ADD DUP2 SWAP1 SSTORE POP DUP1 PUSH1 0x1 PUSH1 0x0 DUP7 PUSH1 0xFF AND PUSH1 0xFF AND DUP2 MSTORE PUSH1 0x20 ADD SWAP1 DUP2 MSTORE PUSH1 0x20 ADD PUSH1 0x0 KECCAK256 PUSH1 0x3 ADD SWAP1 DUP2 PUSH2 0x628 SWAP2 SWAP1 PUSH2 0x1239 JUMP JUMPDEST POP PUSH1 0x2 PUSH1 0x0 DUP5 PUSH1 0xFF AND PUSH1 0xFF AND DUP2 MSTORE PUSH1 0x20 ADD SWAP1 DUP2 MSTORE PUSH1 0x20 ADD PUSH1 0x0 KECCAK256 PUSH1 0x4 ADD DUP3 SWAP1 DUP1 PUSH1 0x1 DUP2 SLOAD ADD DUP1 DUP3 SSTORE DUP1 SWAP2 POP POP PUSH1 0x1 SWAP1 SUB SWAP1 PUSH1 0x0 MSTORE PUSH1 0x20 PUSH1 0x0 KECCAK256 ADD PUSH1 0x0 SWAP1 SWAP2 PUSH1 0xFF AND SWAP1 SWAP2 SWAP1 SWAP2 POP SSTORE PUSH1 0x2 PUSH1 0x0 DUP5 PUSH1 0xFF AND PUSH1 0xFF AND DUP2 MSTORE PUSH1 0x20 ADD SWAP1 DUP2 MSTORE PUSH1 0x20 ADD PUSH1 0x0 KECCAK256 PUSH1 0x5 ADD DUP5 SWAP1 DUP1 PUSH1 0x1 DUP2 SLOAD ADD DUP1 DUP3 SSTORE DUP1 SWAP2 POP POP PUSH1 0x1 SWAP1 SUB SWAP1 PUSH1 0x0 MSTORE PUSH1 0x20 PUSH1 0x0 KECCAK256 ADD PUSH1 0x0 SWAP1 SWAP2 PUSH1 0xFF AND SWAP1 SWAP2 SWAP1 SWAP2 POP SSTORE POP POP POP POP JUMP JUMPDEST PUSH2 0x6C3 PUSH2 0x8CE JUMP JUMPDEST PUSH1 0x2 PUSH1 0x0 DUP4 PUSH1 0xFF AND PUSH1 0xFF AND DUP2 MSTORE PUSH1 0x20 ADD SWAP1 DUP2 MSTORE PUSH1 0x20 ADD PUSH1 0x0 KECCAK256 PUSH1 0x40 MLOAD DUP1 PUSH1 0xC0 ADD PUSH1 0x40 MSTORE SWAP1 DUP2 PUSH1 0x0 DUP3 ADD SLOAD DUP2 MSTORE PUSH1 0x20 ADD PUSH1 0x1 DUP3 ADD DUP1 SLOAD PUSH2 0x701 SWAP1 PUSH2 0x105C JUMP JUMPDEST DUP1 PUSH1 0x1F ADD PUSH1 0x20 DUP1 SWAP2 DIV MUL PUSH1 0x20 ADD PUSH1 0x40 MLOAD SWAP1 DUP2 ADD PUSH1 0x40 MSTORE DUP1 SWAP3 SWAP2 SWAP1 DUP2 DUP2 MSTORE PUSH1 0x20 ADD DUP3 DUP1 SLOAD PUSH2 0x72D SWAP1 PUSH2 0x105C JUMP JUMPDEST DUP1 ISZERO PUSH2 0x77A JUMPI DUP1 PUSH1 0x1F LT PUSH2 0x74F JUMPI PUSH2 0x100 DUP1 DUP4 SLOAD DIV MUL DUP4 MSTORE SWAP2 PUSH1 0x20 ADD SWAP2 PUSH2 0x77A JUMP JUMPDEST DUP3 ADD SWAP2 SWAP1 PUSH1 0x0 MSTORE PUSH1 0x20 PUSH1 0x0 KECCAK256 SWAP1 JUMPDEST DUP2 SLOAD DUP2 MSTORE SWAP1 PUSH1 0x1 ADD SWAP1 PUSH1 0x20 ADD DUP1 DUP4 GT PUSH2 0x75D JUMPI DUP3 SWAP1 SUB PUSH1 0x1F AND DUP3 ADD SWAP2 JUMPDEST POP POP POP POP POP DUP2 MSTORE PUSH1 0x20 ADD PUSH1 0x2 DUP3 ADD PUSH1 0x0 SWAP1 SLOAD SWAP1 PUSH2 0x100 EXP SWAP1 DIV PUSH1 0xFF AND PUSH1 0xFF AND PUSH1 0xFF AND DUP2 MSTORE PUSH1 0x20 ADD PUSH1 0x3 DUP3 ADD SLOAD DUP2 MSTORE PUSH1 0x20 ADD PUSH1 0x4 DUP3 ADD DUP1 SLOAD DUP1 PUSH1 0x20 MUL PUSH1 0x20 ADD PUSH1 0x40 MLOAD SWAP1 DUP2 ADD PUSH1 0x40 MSTORE DUP1 SWAP3 SWAP2 SWAP1 DUP2 DUP2 MSTORE PUSH1 0x20 ADD DUP3 DUP1 SLOAD DUP1 ISZERO PUSH2 0x7F9 JUMPI PUSH1 0x20 MUL DUP3 ADD SWAP2 SWAP1 PUSH1 0x0 MSTORE PUSH1 0x20 PUSH1 0x0 KECCAK256 SWAP1 JUMPDEST DUP2 SLOAD DUP2 MSTORE PUSH1 0x20 ADD SWAP1 PUSH1 0x1 ADD SWAP1 DUP1 DUP4 GT PUSH2 0x7E5 JUMPI JUMPDEST POP POP POP POP POP DUP2 MSTORE PUSH1 0x20 ADD PUSH1 0x5 DUP3 ADD DUP1 SLOAD DUP1 PUSH1 0x20 MUL PUSH1 0x20 ADD PUSH1 0x40 MLOAD SWAP1 DUP2 ADD PUSH1 0x40 MSTORE DUP1 SWAP3 SWAP2 SWAP1 DUP2 DUP2 MSTORE PUSH1 0x20 ADD DUP3 DUP1 SLOAD DUP1 ISZERO PUSH2 0x851 JUMPI PUSH1 0x20 MUL DUP3 ADD SWAP2 SWAP1 PUSH1 0x0 MSTORE PUSH1 0x20 PUSH1 0x0 KECCAK256 SWAP1 JUMPDEST DUP2 SLOAD DUP2 MSTORE PUSH1 0x20 ADD SWAP1 PUSH1 0x1 ADD SWAP1 DUP1 DUP4 GT PUSH2 0x83D JUMPI JUMPDEST POP POP POP POP POP DUP2 MSTORE POP POP SWAP1 POP SWAP2 SWAP1 POP JUMP JUMPDEST PUSH1 0x0 DUP1 SLOAD SWAP1 PUSH2 0x100 EXP SWAP1 DIV PUSH20 0xFFFFFFFFFFFFFFFFFFFFFFFFFFFFFFFFFFFFFFFF AND DUP2 JUMP JUMPDEST PUSH1 0x40 MLOAD DUP1 PUSH1 0x80 ADD PUSH1 0x40 MSTORE DUP1 PUSH1 0x0 DUP2 MSTORE PUSH1 0x20 ADD PUSH1 0x0 DUP2 MSTORE PUSH1 0x20 ADD PUSH1 0x0 DUP2 MSTORE PUSH1 0x20 ADD PUSH1 0x60 DUP2 MSTORE POP SWAP1 JUMP JUMPDEST PUSH1 0x40 MLOAD DUP1 PUSH1 0x60 ADD PUSH1 0x40 MSTORE DUP1 PUSH1 0x60 DUP2 MSTORE PUSH1 0x20 ADD PUSH1 0x0 DUP2 MSTORE PUSH1 0x20 ADD PUSH1 0x60 DUP2 MSTORE POP SWAP1 JUMP JUMPDEST PUSH1 0x40 MLOAD DUP1 PUSH1 0xC0 ADD PUSH1 0x40 MSTORE DUP1 PUSH1 0x0 DUP2 MSTORE PUSH1 0x20 ADD PUSH1 0x60 DUP2 MSTORE PUSH1 0x20 ADD PUSH1 0x0 PUSH1 0xFF AND DUP2 MSTORE PUSH1 0x20 ADD PUSH1 0x0 DUP2 MSTORE PUSH1 0x20 ADD PUSH1 0x60 DUP2 MSTORE PUSH1 0x20 ADD PUSH1 0x60 DUP2 MSTORE POP SWAP1 JUMP JUMPDEST PUSH1 0x0 PUSH1 0x40 MLOAD SWAP1 POP SWAP1 JUMP JUMPDEST PUSH1 0x0 DUP1 REVERT JUMPDEST PUSH1 0x0 DUP1 REVERT JUMPDEST PUSH1 0x0 PUSH1 0xFF DUP3 AND SWAP1 POP SWAP2 SWAP1 POP JUMP JUMPDEST PUSH2 0x931 DUP2 PUSH2 0x91B JUMP JUMPDEST DUP2 EQ PUSH2 0x93C JUMPI PUSH1 0x0 DUP1 REVERT JUMPDEST POP JUMP JUMPDEST PUSH1 0x0 DUP2 CALLDATALOAD SWAP1 POP PUSH2 0x94E DUP2 PUSH2 0x928 JUMP JUMPDEST SWAP3 SWAP2 POP POP JUMP JUMPDEST PUSH1 0x0 DUP2 SWAP1 POP SWAP2 SWAP1 POP JUMP JUMPDEST PUSH2 0x967 DUP2 PUSH2 0x954 JUMP JUMPDEST DUP2 EQ PUSH2 0x972 JUMPI PUSH1 0x0 DUP1 REVERT JUMPDEST POP JUMP JUMPDEST PUSH1 0x0 DUP2 CALLDATALOAD SWAP1 POP PUSH2 0x984 DUP2 PUSH2 0x95E JUMP JUMPDEST SWAP3 SWAP2 POP POP JUMP JUMPDEST PUSH1 0x0 DUP1 PUSH1 0x40 DUP4 DUP6 SUB SLT ISZERO PUSH2 0x9A1 JUMPI PUSH2 0x9A0 PUSH2 0x911 JUMP JUMPDEST JUMPDEST PUSH1 0x0 PUSH2 0x9AF DUP6 DUP3 DUP7 ADD PUSH2 0x93F JUMP JUMPDEST SWAP3 POP POP PUSH1 0x20 PUSH2 0x9C0 DUP6 DUP3 DUP7 ADD PUSH2 0x975 JUMP JUMPDEST SWAP2 POP POP SWAP3 POP SWAP3 SWAP1 POP JUMP JUMPDEST PUSH1 0x0 DUP1 REVERT JUMPDEST PUSH1 0x0 DUP1 REVERT JUMPDEST PUSH1 0x0 PUSH1 0x1F NOT PUSH1 0x1F DUP4 ADD AND SWAP1 POP SWAP2 SWAP1 POP JUMP JUMPDEST PUSH32 0x4E487B7100000000000000000000000000000000000000000000000000000000 PUSH1 0x0 MSTORE PUSH1 0x41 PUSH1 0x4 MSTORE PUSH1 0x24 PUSH1 0x0 REVERT JUMPDEST PUSH2 0xA1D DUP3 PUSH2 0x9D4 JUMP JUMPDEST DUP2 ADD DUP2 DUP2 LT PUSH8 0xFFFFFFFFFFFFFFFF DUP3 GT OR ISZERO PUSH2 0xA3C JUMPI PUSH2 0xA3B PUSH2 0x9E5 JUMP JUMPDEST JUMPDEST DUP1 PUSH1 0x40 MSTORE POP POP POP JUMP JUMPDEST PUSH1 0x0 PUSH2 0xA4F PUSH2 0x907 JUMP JUMPDEST SWAP1 POP PUSH2 0xA5B DUP3 DUP3 PUSH2 0xA14 JUMP JUMPDEST SWAP2 SWAP1 POP JUMP JUMPDEST PUSH1 0x0 PUSH8 0xFFFFFFFFFFFFFFFF DUP3 GT ISZERO PUSH2 0xA7B JUMPI PUSH2 0xA7A PUSH2 0x9E5 JUMP JUMPDEST JUMPDEST PUSH2 0xA84 DUP3 PUSH2 0x9D4 JUMP JUMPDEST SWAP1 POP PUSH1 0x20 DUP2 ADD SWAP1 POP SWAP2 SWAP1 POP JUMP JUMPDEST DUP3 DUP2 DUP4 CALLDATACOPY PUSH1 0x0 DUP4 DUP4 ADD MSTORE POP POP POP JUMP JUMPDEST PUSH1 0x0 PUSH2 0xAB3 PUSH2 0xAAE DUP5 PUSH2 0xA60 JUMP JUMPDEST PUSH2 0xA45 JUMP JUMPDEST SWAP1 POP DUP3 DUP2 MSTORE PUSH1 0x20 DUP2 ADD DUP5 DUP5 DUP5 ADD GT ISZERO PUSH2 0xACF JUMPI PUSH2 0xACE PUSH2 0x9CF JUMP JUMPDEST JUMPDEST PUSH2 0xADA DUP5 DUP3 DUP6 PUSH2 0xA91 JUMP JUMPDEST POP SWAP4 SWAP3 POP POP POP JUMP JUMPDEST PUSH1 0x0 DUP3 PUSH1 0x1F DUP4 ADD SLT PUSH2 0xAF7 JUMPI PUSH2 0xAF6 PUSH2 0x9CA JUMP JUMPDEST JUMPDEST DUP2 CALLDATALOAD PUSH2 0xB07 DUP5 DUP3 PUSH1 0x20 DUP7 ADD PUSH2 0xAA0 JUMP JUMPDEST SWAP2 POP POP SWAP3 SWAP2 POP POP JUMP JUMPDEST PUSH1 0x0 DUP1 PUSH1 0x0 PUSH1 0x60 DUP5 DUP7 SUB SLT ISZERO PUSH2 0xB29 JUMPI PUSH2 0xB28 PUSH2 0x911 JUMP JUMPDEST JUMPDEST PUSH1 0x0 PUSH2 0xB37 DUP7 DUP3 DUP8 ADD PUSH2 0x93F JUMP JUMPDEST SWAP4 POP POP PUSH1 0x20 DUP5 ADD CALLDATALOAD PUSH8 0xFFFFFFFFFFFFFFFF DUP2 GT ISZERO PUSH2 0xB58 JUMPI PUSH2 0xB57 PUSH2 0x916 JUMP JUMPDEST JUMPDEST PUSH2 0xB64 DUP7 DUP3 DUP8 ADD PUSH2 0xAE2 JUMP JUMPDEST SWAP3 POP POP PUSH1 0x40 DUP5 ADD CALLDATALOAD PUSH8 0xFFFFFFFFFFFFFFFF DUP2 GT ISZERO PUSH2 0xB85 JUMPI PUSH2 0xB84 PUSH2 0x916 JUMP JUMPDEST JUMPDEST PUSH2 0xB91 DUP7 DUP3 DUP8 ADD PUSH2 0xAE2 JUMP JUMPDEST SWAP2 POP POP SWAP3 POP SWAP3 POP SWAP3 JUMP JUMPDEST PUSH1 0x0 PUSH1 0x20 DUP3 DUP5 SUB SLT ISZERO PUSH2 0xBB1 JUMPI PUSH2 0xBB0 PUSH2 0x911 JUMP JUMPDEST JUMPDEST PUSH1 0x0 PUSH2 0xBBF DUP5 DUP3 DUP6 ADD PUSH2 0x93F JUMP JUMPDEST SWAP2 POP POP SWAP3 SWAP2 POP POP JUMP JUMPDEST PUSH2 0xBD1 DUP2 PUSH2 0x954 JUMP JUMPDEST DUP3 MSTORE POP POP JUMP JUMPDEST PUSH1 0x0 DUP2 MLOAD SWAP1 POP SWAP2 SWAP1 POP JUMP JUMPDEST PUSH1 0x0 DUP3 DUP3 MSTORE PUSH1 0x20 DUP3 ADD SWAP1 POP SWAP3 SWAP2 POP POP JUMP JUMPDEST PUSH1 0x0 JUMPDEST DUP4 DUP2 LT ISZERO PUSH2 0xC11 JUMPI DUP1 DUP3 ADD MLOAD DUP2 DUP5 ADD MSTORE PUSH1 0x20 DUP2 ADD SWAP1 POP PUSH2 0xBF6 JUMP JUMPDEST PUSH1 0x0 DUP5 DUP5 ADD MSTORE POP POP POP POP JUMP JUMPDEST PUSH1 0x0 PUSH2 0xC28 DUP3 PUSH2 0xBD7 JUMP JUMPDEST PUSH2 0xC32 DUP2 DUP6 PUSH2 0xBE2 JUMP JUMPDEST SWAP4 POP PUSH2 0xC42 DUP2 DUP6 PUSH1 0x20 DUP7 ADD PUSH2 0xBF3 JUMP JUMPDEST PUSH2 0xC4B DUP2 PUSH2 0x9D4 JUMP JUMPDEST DUP5 ADD SWAP2 POP POP SWAP3 SWAP2 POP POP JUMP JUMPDEST PUSH1 0x0 PUSH1 0x80 DUP4 ADD PUSH1 0x0 DUP4 ADD MLOAD PUSH2 0xC6E PUSH1 0x0 DUP7 ADD DUP3 PUSH2 0xBC8 JUMP JUMPDEST POP PUSH1 0x20 DUP4 ADD MLOAD PUSH2 0xC81 PUSH1 0x20 DUP7 ADD DUP3 PUSH2 0xBC8 JUMP JUMPDEST POP PUSH1 0x40 DUP4 ADD MLOAD PUSH2 0xC94 PUSH1 0x40 DUP7 ADD DUP3 PUSH2 0xBC8 JUMP JUMPDEST POP PUSH1 0x60 DUP4 ADD MLOAD DUP5 DUP3 SUB PUSH1 0x60 DUP7 ADD MSTORE PUSH2 0xCAC DUP3 DUP3 PUSH2 0xC1D JUMP JUMPDEST SWAP2 POP POP DUP1 SWAP2 POP POP SWAP3 SWAP2 POP POP JUMP JUMPDEST PUSH1 0x0 PUSH1 0x20 DUP3 ADD SWAP1 POP DUP2 DUP2 SUB PUSH1 0x0 DUP4 ADD MSTORE PUSH2 0xCD3 DUP2 DUP5 PUSH2 0xC56 JUMP JUMPDEST SWAP1 POP SWAP3 SWAP2 POP POP JUMP JUMPDEST PUSH1 0x0 DUP1 PUSH1 0x0 DUP1 PUSH1 0x80 DUP6 DUP8 SUB SLT ISZERO PUSH2 0xCF5 JUMPI PUSH2 0xCF4 PUSH2 0x911 JUMP JUMPDEST JUMPDEST PUSH1 0x0 PUSH2 0xD03 DUP8 DUP3 DUP9 ADD PUSH2 0x93F JUMP JUMPDEST SWAP5 POP POP PUSH1 0x20 DUP6 ADD CALLDATALOAD PUSH8 0xFFFFFFFFFFFFFFFF DUP2 GT ISZERO PUSH2 0xD24 JUMPI PUSH2 0xD23 PUSH2 0x916 JUMP JUMPDEST JUMPDEST PUSH2 0xD30 DUP8 DUP3 DUP9 ADD PUSH2 0xAE2 JUMP JUMPDEST SWAP4 POP POP PUSH1 0x40 PUSH2 0xD41 DUP8 DUP3 DUP9 ADD PUSH2 0x93F JUMP JUMPDEST SWAP3 POP POP PUSH1 0x60 PUSH2 0xD52 DUP8 DUP3 DUP9 ADD PUSH2 0x975 JUMP JUMPDEST SWAP2 POP POP SWAP3 SWAP6 SWAP2 SWAP5 POP SWAP3 POP JUMP JUMPDEST PUSH1 0x0 PUSH1 0x60 DUP4 ADD PUSH1 0x0 DUP4 ADD MLOAD DUP5 DUP3 SUB PUSH1 0x0 DUP7 ADD MSTORE PUSH2 0xD7B DUP3 DUP3 PUSH2 0xC1D JUMP JUMPDEST SWAP2 POP POP PUSH1 0x20 DUP4 ADD MLOAD PUSH2 0xD90 PUSH1 0x20 DUP7 ADD DUP3 PUSH2 0xBC8 JUMP JUMPDEST POP PUSH1 0x40 DUP4 ADD MLOAD DUP5 DUP3 SUB PUSH1 0x40 DUP7 ADD MSTORE PUSH2 0xDA8 DUP3 DUP3 PUSH2 0xC1D JUMP JUMPDEST SWAP2 POP POP DUP1 SWAP2 POP POP SWAP3 SWAP2 POP POP JUMP JUMPDEST PUSH1 0x0 PUSH1 0x20 DUP3 ADD SWAP1 POP DUP2 DUP2 SUB PUSH1 0x0 DUP4 ADD MSTORE PUSH2 0xDCF DUP2 DUP5 PUSH2 0xD5E JUMP JUMPDEST SWAP1 POP SWAP3 SWAP2 POP POP JUMP JUMPDEST PUSH1 0x0 DUP1 PUSH1 0x0 DUP1 PUSH1 0x80 DUP6 DUP8 SUB SLT ISZERO PUSH2 0xDF1 JUMPI PUSH2 0xDF0 PUSH2 0x911 JUMP JUMPDEST JUMPDEST PUSH1 0x0 PUSH2 0xDFF DUP8 DUP3 DUP9 ADD PUSH2 0x93F JUMP JUMPDEST SWAP5 POP POP PUSH1 0x20 PUSH2 0xE10 DUP8 DUP3 DUP9 ADD PUSH2 0x93F JUMP JUMPDEST SWAP4 POP POP PUSH1 0x40 PUSH2 0xE21 DUP8 DUP3 DUP9 ADD PUSH2 0x93F JUMP JUMPDEST SWAP3 POP POP PUSH1 0x60 DUP6 ADD CALLDATALOAD PUSH8 0xFFFFFFFFFFFFFFFF DUP2 GT ISZERO PUSH2 0xE42 JUMPI PUSH2 0xE41 PUSH2 0x916 JUMP JUMPDEST JUMPDEST PUSH2 0xE4E DUP8 DUP3 DUP9 ADD PUSH2 0xAE2 JUMP JUMPDEST SWAP2 POP POP SWAP3 SWAP6 SWAP2 SWAP5 POP SWAP3 POP JUMP JUMPDEST PUSH2 0xE63 DUP2 PUSH2 0x91B JUMP JUMPDEST DUP3 MSTORE POP POP JUMP JUMPDEST PUSH1 0x0 DUP2 MLOAD SWAP1 POP SWAP2 SWAP1 POP JUMP JUMPDEST PUSH1 0x0 DUP3 DUP3 MSTORE PUSH1 0x20 DUP3 ADD SWAP1 POP SWAP3 SWAP2 POP POP JUMP JUMPDEST PUSH1 0x0 DUP2 SWAP1 POP PUSH1 0x20 DUP3 ADD SWAP1 POP SWAP2 SWAP1 POP JUMP JUMPDEST PUSH1 0x0 PUSH2 0xEA1 DUP4 DUP4 PUSH2 0xBC8 JUMP JUMPDEST PUSH1 0x20 DUP4 ADD SWAP1 POP SWAP3 SWAP2 POP POP JUMP JUMPDEST PUSH1 0x0 PUSH1 0x20 DUP3 ADD SWAP1 POP SWAP2 SWAP1 POP JUMP JUMPDEST PUSH1 0x0 PUSH2 0xEC5 DUP3 PUSH2 0xE69 JUMP JUMPDEST PUSH2 0xECF DUP2 DUP6 PUSH2 0xE74 JUMP JUMPDEST SWAP4 POP PUSH2 0xEDA DUP4 PUSH2 0xE85 JUMP JUMPDEST DUP1 PUSH1 0x0 JUMPDEST DUP4 DUP2 LT ISZERO PUSH2 0xF0B JUMPI DUP2 MLOAD PUSH2 0xEF2 DUP9 DUP3 PUSH2 0xE95 JUMP JUMPDEST SWAP8 POP PUSH2 0xEFD DUP4 PUSH2 0xEAD JUMP JUMPDEST SWAP3 POP POP PUSH1 0x1 DUP2 ADD SWAP1 POP PUSH2 0xEDE JUMP JUMPDEST POP DUP6 SWAP4 POP POP POP POP SWAP3 SWAP2 POP POP JUMP JUMPDEST PUSH1 0x0 PUSH1 0xC0 DUP4 ADD PUSH1 0x0 DUP4 ADD MLOAD PUSH2 0xF30 PUSH1 0x0 DUP7 ADD DUP3 PUSH2 0xBC8 JUMP JUMPDEST POP PUSH1 0x20 DUP4 ADD MLOAD DUP5 DUP3 SUB PUSH1 0x20 DUP7 ADD MSTORE PUSH2 0xF48 DUP3 DUP3 PUSH2 0xC1D JUMP JUMPDEST SWAP2 POP POP PUSH1 0x40 DUP4 ADD MLOAD PUSH2 0xF5D PUSH1 0x40 DUP7 ADD DUP3 PUSH2 0xE5A JUMP JUMPDEST POP PUSH1 0x60 DUP4 ADD MLOAD PUSH2 0xF70 PUSH1 0x60 DUP7 ADD DUP3 PUSH2 0xBC8 JUMP JUMPDEST POP PUSH1 0x80 DUP4 ADD MLOAD DUP5 DUP3 SUB PUSH1 0x80 DUP7 ADD MSTORE PUSH2 0xF88 DUP3 DUP3 PUSH2 0xEBA JUMP JUMPDEST SWAP2 POP POP PUSH1 0xA0 DUP4 ADD MLOAD DUP5 DUP3 SUB PUSH1 0xA0 DUP7 ADD MSTORE PUSH2 0xFA2 DUP3 DUP3 PUSH2 0xEBA JUMP JUMPDEST SWAP2 POP POP DUP1 SWAP2 POP POP SWAP3 SWAP2 POP POP JUMP JUMPDEST PUSH1 0x0 PUSH1 0x20 DUP3 ADD SWAP1 POP DUP2 DUP2 SUB PUSH1 0x0 DUP4 ADD MSTORE PUSH2 0xFC9 DUP2 DUP5 PUSH2 0xF18 JUMP JUMPDEST SWAP1 POP SWAP3 SWAP2 POP POP JUMP JUMPDEST PUSH1 0x0 PUSH20 0xFFFFFFFFFFFFFFFFFFFFFFFFFFFFFFFFFFFFFFFF DUP3 AND SWAP1 POP SWAP2 SWAP1 POP JUMP JUMPDEST PUSH1 0x0 PUSH2 0xFFC DUP3 PUSH2 0xFD1 JUMP JUMPDEST SWAP1 POP SWAP2 SWAP1 POP JUMP JUMPDEST PUSH2 0x100C DUP2 PUSH2 0xFF1 JUMP JUMPDEST DUP3 MSTORE POP POP JUMP JUMPDEST PUSH1 0x0 PUSH1 0x20 DUP3 ADD SWAP1 POP PUSH2 0x1027 PUSH1 0x0 DUP4 ADD DUP5 PUSH2 0x1003 JUMP JUMPDEST SWAP3 SWAP2 POP POP JUMP JUMPDEST PUSH32 0x4E487B7100000000000000000000000000000000000000000000000000000000 PUSH1 0x0 MSTORE PUSH1 0x22 PUSH1 0x4 MSTORE PUSH1 0x24 PUSH1 0x0 REVERT JUMPDEST PUSH1 0x0 PUSH1 0x2 DUP3 DIV SWAP1 POP PUSH1 0x1 DUP3 AND DUP1 PUSH2 0x1074 JUMPI PUSH1 0x7F DUP3 AND SWAP2 POP JUMPDEST PUSH1 0x20 DUP3 LT DUP2 SUB PUSH2 0x1087 JUMPI PUSH2 0x1086 PUSH2 0x102D JUMP JUMPDEST JUMPDEST POP SWAP2 SWAP1 POP JUMP JUMPDEST PUSH1 0x0 DUP2 SWAP1 POP DUP2 PUSH1 0x0 MSTORE PUSH1 0x20 PUSH1 0x0 KECCAK256 SWAP1 POP SWAP2 SWAP1 POP JUMP JUMPDEST PUSH1 0x0 PUSH1 0x20 PUSH1 0x1F DUP4 ADD DIV SWAP1 POP SWAP2 SWAP1 POP JUMP JUMPDEST PUSH1 0x0 DUP3 DUP3 SHL SWAP1 POP SWAP3 SWAP2 POP POP JUMP JUMPDEST PUSH1 0x0 PUSH1 0x8 DUP4 MUL PUSH2 0x10EF PUSH32 0xFFFFFFFFFFFFFFFFFFFFFFFFFFFFFFFFFFFFFFFFFFFFFFFFFFFFFFFFFFFFFFFF DUP3 PUSH2 0x10B2 JUMP JUMPDEST PUSH2 0x10F9 DUP7 DUP4 PUSH2 0x10B2 JUMP JUMPDEST SWAP6 POP DUP1 NOT DUP5 AND SWAP4 POP DUP1 DUP7 AND DUP5 OR SWAP3 POP POP POP SWAP4 SWAP3 POP POP POP JUMP JUMPDEST PUSH1 0x0 DUP2 SWAP1 POP SWAP2 SWAP1 POP JUMP JUMPDEST PUSH1 0x0 PUSH2 0x1136 PUSH2 0x1131 PUSH2 0x112C DUP5 PUSH2 0x954 JUMP JUMPDEST PUSH2 0x1111 JUMP JUMPDEST PUSH2 0x954 JUMP JUMPDEST SWAP1 POP SWAP2 SWAP1 POP JUMP JUMPDEST PUSH1 0x0 DUP2 SWAP1 POP SWAP2 SWAP1 POP JUMP JUMPDEST PUSH2 0x1150 DUP4 PUSH2 0x111B JUMP JUMPDEST PUSH2 0x1164 PUSH2 0x115C DUP3 PUSH2 0x113D JUMP JUMPDEST DUP5 DUP5 SLOAD PUSH2 0x10BF JUMP JUMPDEST DUP3 SSTORE POP POP POP POP JUMP JUMPDEST PUSH1 0x0 SWAP1 JUMP JUMPDEST PUSH2 0x1179 PUSH2 0x116C JUMP JUMPDEST PUSH2 0x1184 DUP2 DUP5 DUP5 PUSH2 0x1147 JUMP JUMPDEST POP POP POP JUMP JUMPDEST JUMPDEST DUP2 DUP2 LT ISZERO PUSH2 0x11A8 JUMPI PUSH2 0x119D PUSH1 0x0 DUP3 PUSH2 0x1171 JUMP JUMPDEST PUSH1 0x1 DUP2 ADD SWAP1 POP PUSH2 0x118A JUMP JUMPDEST POP POP JUMP JUMPDEST PUSH1 0x1F DUP3 GT ISZERO PUSH2 0x11ED JUMPI PUSH2 0x11BE DUP2 PUSH2 0x108D JUMP JUMPDEST PUSH2 0x11C7 DUP5 PUSH2 0x10A2 JUMP JUMPDEST DUP2 ADD PUSH1 0x20 DUP6 LT ISZERO PUSH2 0x11D6 JUMPI DUP2 SWAP1 POP JUMPDEST PUSH2 0x11EA PUSH2 0x11E2 DUP6 PUSH2 0x10A2 JUMP JUMPDEST DUP4 ADD DUP3 PUSH2 0x1189 JUMP JUMPDEST POP POP JUMPDEST POP POP POP JUMP JUMPDEST PUSH1 0x0 DUP3 DUP3 SHR SWAP1 POP SWAP3 SWAP2 POP POP JUMP JUMPDEST PUSH1 0x0 PUSH2 0x1210 PUSH1 0x0 NOT DUP5 PUSH1 0x8 MUL PUSH2 0x11F2 JUMP JUMPDEST NOT DUP1 DUP4 AND SWAP2 POP POP SWAP3 SWAP2 POP POP JUMP JUMPDEST PUSH1 0x0 PUSH2 0x1229 DUP4 DUP4 PUSH2 0x11FF JUMP JUMPDEST SWAP2 POP DUP3 PUSH1 0x2 MUL DUP3 OR SWAP1 POP SWAP3 SWAP2 POP POP JUMP JUMPDEST PUSH2 0x1242 DUP3 PUSH2 0xBD7 JUMP JUMPDEST PUSH8 0xFFFFFFFFFFFFFFFF DUP2 GT ISZERO PUSH2 0x125B JUMPI PUSH2 0x125A PUSH2 0x9E5 JUMP JUMPDEST JUMPDEST PUSH2 0x1265 DUP3 SLOAD PUSH2 0x105C JUMP JUMPDEST PUSH2 0x1270 DUP3 DUP3 DUP6 PUSH2 0x11AC JUMP JUMPDEST PUSH1 0x0 PUSH1 0x20 SWAP1 POP PUSH1 0x1F DUP4 GT PUSH1 0x1 DUP2 EQ PUSH2 0x12A3 JUMPI PUSH1 0x0 DUP5 ISZERO PUSH2 0x1291 JUMPI DUP3 DUP8 ADD MLOAD SWAP1 POP JUMPDEST PUSH2 0x129B DUP6 DUP3 PUSH2 0x121D JUMP JUMPDEST DUP7 SSTORE POP PUSH2 0x1303 JUMP JUMPDEST PUSH1 0x1F NOT DUP5 AND PUSH2 0x12B1 DUP7 PUSH2 0x108D JUMP JUMPDEST PUSH1 0x0 JUMPDEST DUP3 DUP2 LT ISZERO PUSH2 0x12D9 JUMPI DUP5 DUP10 ADD MLOAD DUP3 SSTORE PUSH1 0x1 DUP3 ADD SWAP2 POP PUSH1 0x20 DUP6 ADD SWAP5 POP PUSH1 0x20 DUP2 ADD SWAP1 POP PUSH2 0x12B4 JUMP JUMPDEST DUP7 DUP4 LT ISZERO PUSH2 0x12F6 JUMPI DUP5 DUP10 ADD MLOAD PUSH2 0x12F2 PUSH1 0x1F DUP10 AND DUP3 PUSH2 0x11FF JUMP JUMPDEST DUP4 SSTORE POP JUMPDEST PUSH1 0x1 PUSH1 0x2 DUP9 MUL ADD DUP9 SSTORE POP POP POP JUMPDEST POP POP POP POP POP POP JUMP INVALID LOG2 PUSH5 0x6970667358 0x22 SLT KECCAK256 PUSH6 0x9A8B6B560988 PUSH28 0x4E44D9E5F017F0A1027CF04C121558C7F53EA0488DEEFB5E64736F6C PUSH4 0x43000812 STOP CALLER "
				},
				"gasEstimates": {
					"creation": {
						"codeDepositCost": "985800",
						"executionCost": "25293",
						"totalCost": "1011093"
					},
					"external": {
						"admin()": "2577",
						"getApplicant(uint8)": "infinite",
						"getApplication(uint8)": "infinite",
						"getJob(uint8)": "infinite",
						"setApplicant(uint8,string,uint8,uint256)": "infinite",
						"setApplication(uint8,uint8,uint8,string)": "infinite",
						"setJob(uint8,string,string)": "infinite",
						"setRating(uint8,uint256)": "22796"
					}
				},
				"methodIdentifiers": {
					"admin()": "f851a440",
					"getApplicant(uint8)": "c2e0d71d",
					"getApplication(uint8)": "5b590a89",
					"getJob(uint8)": "7dc19f67",
					"setApplicant(uint8,string,uint8,uint256)": "62e2742b",
					"setApplication(uint8,uint8,uint8,string)": "a31569f8",
					"setJob(uint8,string,string)": "4c06810a",
					"setRating(uint8,uint256)": "46682947"
				}
			},
			"storageLayout": {
				"storage": [
					{
						"astId": 3,
						"contract": "contracts/job-portal.sol:JobPortal",
						"label": "admin",
						"offset": 0,
						"slot": "0",
						"type": "t_address"
					},
					{
						"astId": 59,
						"contract": "contracts/job-portal.sol:JobPortal",
						"label": "applications",
						"offset": 0,
						"slot": "1",
						"type": "t_mapping(t_uint8,t_struct(Application)54_storage)"
					},
					{
						"astId": 64,
						"contract": "contracts/job-portal.sol:JobPortal",
						"label": "applicants",
						"offset": 0,
						"slot": "2",
						"type": "t_mapping(t_uint8,t_struct(Applicant)38_storage)"
					},
					{
						"astId": 69,
						"contract": "contracts/job-portal.sol:JobPortal",
						"label": "jobs",
						"offset": 0,
						"slot": "3",
						"type": "t_mapping(t_uint8,t_struct(Job)45_storage)"
					}
				],
				"types": {
					"t_address": {
						"encoding": "inplace",
						"label": "address",
						"numberOfBytes": "20"
					},
					"t_array(t_uint256)dyn_storage": {
						"base": "t_uint256",
						"encoding": "dynamic_array",
						"label": "uint256[]",
						"numberOfBytes": "32"
					},
					"t_mapping(t_uint8,t_struct(Applicant)38_storage)": {
						"encoding": "mapping",
						"key": "t_uint8",
						"label": "mapping(uint8 => struct JobPortal.Applicant)",
						"numberOfBytes": "32",
						"value": "t_struct(Applicant)38_storage"
					},
					"t_mapping(t_uint8,t_struct(Application)54_storage)": {
						"encoding": "mapping",
						"key": "t_uint8",
						"label": "mapping(uint8 => struct JobPortal.Application)",
						"numberOfBytes": "32",
						"value": "t_struct(Application)54_storage"
					},
					"t_mapping(t_uint8,t_struct(Job)45_storage)": {
						"encoding": "mapping",
						"key": "t_uint8",
						"label": "mapping(uint8 => struct JobPortal.Job)",
						"numberOfBytes": "32",
						"value": "t_struct(Job)45_storage"
					},
					"t_string_storage": {
						"encoding": "bytes",
						"label": "string",
						"numberOfBytes": "32"
					},
					"t_struct(Applicant)38_storage": {
						"encoding": "inplace",
						"label": "struct JobPortal.Applicant",
						"members": [
							{
								"astId": 25,
								"contract": "contracts/job-portal.sol:JobPortal",
								"label": "id",
								"offset": 0,
								"slot": "0",
								"type": "t_uint256"
							},
							{
								"astId": 27,
								"contract": "contracts/job-portal.sol:JobPortal",
								"label": "Name",
								"offset": 0,
								"slot": "1",
								"type": "t_string_storage"
							},
							{
								"astId": 29,
								"contract": "contracts/job-portal.sol:JobPortal",
								"label": "age",
								"offset": 0,
								"slot": "2",
								"type": "t_uint8"
							},
							{
								"astId": 31,
								"contract": "contracts/job-portal.sol:JobPortal",
								"label": "rating",
								"offset": 0,
								"slot": "3",
								"type": "t_uint256"
							},
							{
								"astId": 34,
								"contract": "contracts/job-portal.sol:JobPortal",
								"label": "applied_jobs",
								"offset": 0,
								"slot": "4",
								"type": "t_array(t_uint256)dyn_storage"
							},
							{
								"astId": 37,
								"contract": "contracts/job-portal.sol:JobPortal",
								"label": "applications",
								"offset": 0,
								"slot": "5",
								"type": "t_array(t_uint256)dyn_storage"
							}
						],
						"numberOfBytes": "192"
					},
					"t_struct(Application)54_storage": {
						"encoding": "inplace",
						"label": "struct JobPortal.Application",
						"members": [
							{
								"astId": 47,
								"contract": "contracts/job-portal.sol:JobPortal",
								"label": "id",
								"offset": 0,
								"slot": "0",
								"type": "t_uint256"
							},
							{
								"astId": 49,
								"contract": "contracts/job-portal.sol:JobPortal",
								"label": "applicant_id",
								"offset": 0,
								"slot": "1",
								"type": "t_uint256"
							},
							{
								"astId": 51,
								"contract": "contracts/job-portal.sol:JobPortal",
								"label": "job_id",
								"offset": 0,
								"slot": "2",
								"type": "t_uint256"
							},
							{
								"astId": 53,
								"contract": "contracts/job-portal.sol:JobPortal",
								"label": "application_type",
								"offset": 0,
								"slot": "3",
								"type": "t_string_storage"
							}
						],
						"numberOfBytes": "128"
					},
					"t_struct(Job)45_storage": {
						"encoding": "inplace",
						"label": "struct JobPortal.Job",
						"members": [
							{
								"astId": 40,
								"contract": "contracts/job-portal.sol:JobPortal",
								"label": "Name",
								"offset": 0,
								"slot": "0",
								"type": "t_string_storage"
							},
							{
								"astId": 42,
								"contract": "contracts/job-portal.sol:JobPortal",
								"label": "id",
								"offset": 0,
								"slot": "1",
								"type": "t_uint256"
							},
							{
								"astId": 44,
								"contract": "contracts/job-portal.sol:JobPortal",
								"label": "desc",
								"offset": 0,
								"slot": "2",
								"type": "t_string_storage"
							}
						],
						"numberOfBytes": "96"
					},
					"t_uint256": {
						"encoding": "inplace",
						"label": "uint256",
						"numberOfBytes": "32"
					},
					"t_uint8": {
						"encoding": "inplace",
						"label": "uint8",
						"numberOfBytes": "1"
					}
				}
			},
			"userdoc": {
				"kind": "user",
				"methods": {},
				"version": 1
			}
		}
	}
}